{
  "_format": "hh-sol-artifact-1",
  "contractName": "PredictionRegistry",
  "sourceName": "contracts/IntellidexContracts.sol",
  "abi": [
    {
      "anonymous": false,
      "inputs": [
        {
          "indexed": true,
          "internalType": "bytes32",
          "name": "predictionHash",
          "type": "bytes32"
        },
        {
          "indexed": true,
          "internalType": "address",
          "name": "predictor",
          "type": "address"
        },
        {
          "indexed": false,
          "internalType": "uint256",
          "name": "timestamp",
          "type": "uint256"
        },
        {
          "indexed": false,
          "internalType": "uint256",
          "name": "currentPrice",
          "type": "uint256"
        },
        {
          "indexed": false,
          "internalType": "string",
          "name": "ipfsCID",
          "type": "string"
        }
      ],
      "name": "PredictionRecorded",
      "type": "event"
    },
    {
      "anonymous": false,
      "inputs": [
        {
          "indexed": true,
          "internalType": "bytes32",
          "name": "predictionHash",
          "type": "bytes32"
        },
        {
          "indexed": false,
          "internalType": "uint8",
          "name": "accuracyScore",
          "type": "uint8"
        },
        {
          "indexed": false,
          "internalType": "uint256",
          "name": "reputationChange",
          "type": "uint256"
        }
      ],
      "name": "PredictionVerified",
      "type": "event"
    },
    {
      "anonymous": false,
      "inputs": [
        {
          "indexed": true,
          "internalType": "address",
          "name": "predictor",
          "type": "address"
        },
        {
          "indexed": false,
          "internalType": "uint256",
          "name": "newReputation",
          "type": "uint256"
        }
      ],
      "name": "ReputationUpdated",
      "type": "event"
    },
    {
      "inputs": [
        {
          "internalType": "uint256",
          "name": "",
          "type": "uint256"
        }
      ],
      "name": "allPredictions",
      "outputs": [
        {
          "internalType": "bytes32",
          "name": "",
          "type": "bytes32"
        }
      ],
      "stateMutability": "view",
      "type": "function"
    },
    {
      "inputs": [
        {
          "internalType": "uint256",
          "name": "_count",
          "type": "uint256"
        }
      ],
      "name": "getLatestPredictions",
      "outputs": [
        {
          "internalType": "bytes32[]",
          "name": "",
          "type": "bytes32[]"
        }
      ],
      "stateMutability": "view",
      "type": "function"
    },
    {
      "inputs": [
        {
          "internalType": "bytes32",
          "name": "_predictionHash",
          "type": "bytes32"
        }
      ],
      "name": "getPrediction",
      "outputs": [
        {
          "internalType": "address",
          "name": "predictor",
          "type": "address"
        },
        {
          "internalType": "uint256",
          "name": "timestamp",
          "type": "uint256"
        },
        {
          "internalType": "uint256",
          "name": "currentPrice",
          "type": "uint256"
        },
        {
          "internalType": "string",
          "name": "ipfsCID",
          "type": "string"
        },
        {
          "internalType": "bool",
          "name": "verified",
          "type": "bool"
        },
        {
          "internalType": "uint8",
          "name": "averageAccuracy",
          "type": "uint8"
        }
      ],
      "stateMutability": "view",
      "type": "function"
    },
    {
      "inputs": [
        {
          "internalType": "address",
          "name": "_predictor",
          "type": "address"
        }
      ],
      "name": "getPredictorPredictions",
      "outputs": [
        {
          "internalType": "bytes32[]",
          "name": "",
          "type": "bytes32[]"
        }
      ],
      "stateMutability": "view",
      "type": "function"
    },
    {
      "inputs": [
        {
          "internalType": "address",
          "name": "_predictor",
          "type": "address"
        }
      ],
      "name": "getPredictorStats",
      "outputs": [
        {
          "internalType": "uint256",
          "name": "totalPredictions",
          "type": "uint256"
        },
        {
          "internalType": "uint256",
          "name": "verifiedPredictions",
          "type": "uint256"
        },
        {
          "internalType": "uint256",
          "name": "averageAccuracy",
          "type": "uint256"
        },
        {
          "internalType": "uint256",
          "name": "reputationScore",
          "type": "uint256"
        }
      ],
      "stateMutability": "view",
      "type": "function"
    },
    {
      "inputs": [],
      "name": "getTotalPredictions",
      "outputs": [
        {
          "internalType": "uint256",
          "name": "",
          "type": "uint256"
        }
      ],
      "stateMutability": "view",
      "type": "function"
    },
    {
      "inputs": [
        {
          "internalType": "bytes32",
          "name": "",
          "type": "bytes32"
        }
      ],
      "name": "predictions",
      "outputs": [
        {
          "internalType": "bytes32",
          "name": "predictionHash",
          "type": "bytes32"
        },
        {
          "internalType": "address",
          "name": "predictor",
          "type": "address"
        },
        {
          "internalType": "uint256",
          "name": "timestamp",
          "type": "uint256"
        },
        {
          "internalType": "uint256",
          "name": "currentPrice",
          "type": "uint256"
        },
        {
          "internalType": "string",
          "name": "ipfsCID",
          "type": "string"
        },
        {
          "internalType": "bool",
          "name": "verified",
          "type": "bool"
        },
        {
          "internalType": "uint8",
          "name": "averageAccuracy",
          "type": "uint8"
        }
      ],
      "stateMutability": "view",
      "type": "function"
    },
    {
      "inputs": [
        {
          "internalType": "address",
          "name": "",
          "type": "address"
        },
        {
          "internalType": "uint256",
          "name": "",
          "type": "uint256"
        }
      ],
      "name": "predictorPredictions",
      "outputs": [
        {
          "internalType": "bytes32",
          "name": "",
          "type": "bytes32"
        }
      ],
      "stateMutability": "view",
      "type": "function"
    },
    {
      "inputs": [
        {
          "internalType": "address",
          "name": "",
          "type": "address"
        }
      ],
      "name": "predictorStats",
      "outputs": [
        {
          "internalType": "uint256",
          "name": "totalPredictions",
          "type": "uint256"
        },
        {
          "internalType": "uint256",
          "name": "verifiedPredictions",
          "type": "uint256"
        },
        {
          "internalType": "uint256",
          "name": "totalAccuracyScore",
          "type": "uint256"
        },
        {
          "internalType": "uint256",
          "name": "reputationScore",
          "type": "uint256"
        },
        {
          "internalType": "bool",
          "name": "isActive",
          "type": "bool"
        }
      ],
      "stateMutability": "view",
      "type": "function"
    },
    {
      "inputs": [
        {
          "internalType": "bytes32",
          "name": "_predictionHash",
          "type": "bytes32"
        },
        {
          "internalType": "uint256",
          "name": "_currentPrice",
          "type": "uint256"
        },
        {
          "internalType": "string",
          "name": "_ipfsCID",
          "type": "string"
        }
      ],
      "name": "recordPrediction",
      "outputs": [],
      "stateMutability": "nonpayable",
      "type": "function"
    },
    {
      "inputs": [
        {
          "internalType": "bytes32",
          "name": "_predictionHash",
          "type": "bytes32"
        },
        {
          "internalType": "uint8",
          "name": "_accuracyScore",
          "type": "uint8"
        }
      ],
      "name": "verifyPrediction",
      "outputs": [],
      "stateMutability": "nonpayable",
      "type": "function"
    }
  ],
  "bytecode": "0x608060405234801561001057600080fd5b50611d0c806100206000396000f3fe608060405234801561001057600080fd5b50600436106100a95760003560e01c80635d9eaeaf116100715780635d9eaeaf14610190578063bbc4a01c146101c6578063be952428146101e2578063dc6423ab146101fe578063e5ecf20914610233578063e9a811d714610266576100a9565b80631847df91146100ae57806320a0846a146100de5780634d4ad46c1461010e5780635536492e146101425780635c58006114610172575b600080fd5b6100c860048036038101906100c39190610f38565b610296565b6040516100d59190610f7e565b60405180910390f35b6100f860048036038101906100f39190610f38565b6102ba565b6040516101059190611057565b60405180910390f35b610128600480360381019061012391906110d7565b6103a5565b60405161013995949392919061112e565b60405180910390f35b61015c600480360381019061015791906110d7565b6103e8565b6040516101699190611057565b60405180910390f35b61017a61047f565b6040516101879190611181565b60405180910390f35b6101aa60048036038101906101a591906111c8565b61048c565b6040516101bd97969594939291906112b0565b60405180910390f35b6101e060048036038101906101db9190611352565b610590565b005b6101fc60048036038101906101f791906113f7565b610923565b005b610218600480360381019061021391906111c8565b610c4d565b60405161022a9695949392919061146b565b60405180910390f35b61024d600480360381019061024891906110d7565b610dea565b60405161025d94939291906114d3565b60405180910390f35b610280600480360381019061027b9190611518565b610ec7565b60405161028d9190610f7e565b60405180910390f35b600381815481106102a657600080fd5b906000526020600020016000915090505481565b60606000600380549050905060008184116102d557836102d7565b815b905060008167ffffffffffffffff8111156102f5576102f4611558565b5b6040519080825280602002602001820160405280156103235781602001602082028036833780820191505090505b50905060005b828110156103995760038160018661034191906115b6565b61034b91906115b6565b8154811061035c5761035b6115ea565b5b906000526020600020015482828151811061037a576103796115ea565b5b602002602001018181525050808061039190611619565b915050610329565b50809350505050919050565b60016020528060005260406000206000915090508060000154908060010154908060020154908060030154908060040160009054906101000a900460ff16905085565b6060600260008373ffffffffffffffffffffffffffffffffffffffff1673ffffffffffffffffffffffffffffffffffffffff16815260200190815260200160002080548060200260200160405190810160405280929190818152602001828054801561047357602002820191906000526020600020905b81548152602001906001019080831161045f575b50505050509050919050565b6000600380549050905090565b60006020528060005260406000206000915090508060000154908060010160009054906101000a900473ffffffffffffffffffffffffffffffffffffffff16908060020154908060030154908060040180546104e790611690565b80601f016020809104026020016040519081016040528092919081815260200182805461051390611690565b80156105605780601f1061053557610100808354040283529160200191610560565b820191906000526020600020905b81548152906001019060200180831161054357829003601f168201915b5050505050908060050160009054906101000a900460ff16908060050160019054906101000a900460ff16905087565b81600080600083815260200190815260200160002060020154036105e9576040517f08c379a00000000000000000000000000000000000000000000000000000000081526004016105e09061170d565b60405180910390fd5b60648260ff161115610630576040517f08c379a000000000000000000000000000000000000000000000000000000000815260040161062790611779565b60405180910390fd5b600080600085815260200190815260200160002090508060050160009054906101000a900460ff1615610698576040517f08c379a000000000000000000000000000000000000000000000000000000000815260040161068f906117e5565b60405180910390fd5b8060010160009054906101000a900473ffffffffffffffffffffffffffffffffffffffff1673ffffffffffffffffffffffffffffffffffffffff163373ffffffffffffffffffffffffffffffffffffffff161461072a576040517f08c379a000000000000000000000000000000000000000000000000000000000815260040161072190611851565b60405180910390fd5b60018160050160006101000a81548160ff021916908315150217905550828160050160016101000a81548160ff021916908360ff1602179055506000600160008360010160009054906101000a900473ffffffffffffffffffffffffffffffffffffffff1673ffffffffffffffffffffffffffffffffffffffff1673ffffffffffffffffffffffffffffffffffffffff16815260200190815260200160002090508060010160008154809291906107e090611619565b91905055508360ff168160020160008282546107fc9190611871565b925050819055506000816001015411156108685760008160010154826002015461082691906118d4565b9050600a82600101548261083a9190611905565b61084491906118d4565b82600301819055506103e882600301541115610866576103e882600301819055505b505b847f97b7f9896c6353c0d52bc67cf3f99deda6783dc7d67ac59d4e0f86aab299555685836003015460405161089e929190611947565b60405180910390a28160010160009054906101000a900473ffffffffffffffffffffffffffffffffffffffff1673ffffffffffffffffffffffffffffffffffffffff167ffc577563f1b9a0461e24abef1e1fcc0d33d3d881f20b5df6dda59de4aae2c82182600301546040516109149190611181565b60405180910390a25050505050565b836000806000838152602001908152602001600020600201541461097c576040517f08c379a0000000000000000000000000000000000000000000000000000000008152600401610973906119bc565b60405180910390fd5b60006040518060e001604052808781526020013373ffffffffffffffffffffffffffffffffffffffff16815260200142815260200186815260200185858080601f016020809104026020016040519081016040528093929190818152602001838380828437600081840152601f19601f820116905080830192505050505050508152602001600015158152602001600060ff168152509050806000808881526020019081526020016000206000820151816000015560208201518160010160006101000a81548173ffffffffffffffffffffffffffffffffffffffff021916908373ffffffffffffffffffffffffffffffffffffffff16021790555060408201518160020155606082015181600301556080820151816004019081610aa19190611b88565b5060a08201518160050160006101000a81548160ff02191690831515021790555060c08201518160050160016101000a81548160ff021916908360ff1602179055509050506003869080600181540180825580915050600190039060005260206000200160009091909190915055600260003373ffffffffffffffffffffffffffffffffffffffff1673ffffffffffffffffffffffffffffffffffffffff1681526020019081526020016000208690806001815401808255809150506001900390600052602060002001600090919091909150556000600160003373ffffffffffffffffffffffffffffffffffffffff1673ffffffffffffffffffffffffffffffffffffffff1681526020019081526020016000209050806000016000815480929190610bcd90611619565b919050555060018160040160006101000a81548160ff0219169083151502179055503373ffffffffffffffffffffffffffffffffffffffff16877fd6093eb96a14a1ec9f416da8b1f0e31826fbb7f1e9e1f92d0c997fd28493b74742898989604051610c3c9493929190611c96565b60405180910390a350505050505050565b6000806000606060008060008060008981526020019081526020016000206040518060e0016040529081600082015481526020016001820160009054906101000a900473ffffffffffffffffffffffffffffffffffffffff1673ffffffffffffffffffffffffffffffffffffffff1673ffffffffffffffffffffffffffffffffffffffff1681526020016002820154815260200160038201548152602001600482018054610cfa90611690565b80601f0160208091040260200160405190810160405280929190818152602001828054610d2690611690565b8015610d735780601f10610d4857610100808354040283529160200191610d73565b820191906000526020600020905b815481529060010190602001808311610d5657829003601f168201915b505050505081526020016005820160009054906101000a900460ff161515151581526020016005820160019054906101000a900460ff1660ff1660ff1681525050905080602001518160400151826060015183608001518460a001518560c001519650965096509650965096505091939550919395565b6000806000806000600160008773ffffffffffffffffffffffffffffffffffffffff1673ffffffffffffffffffffffffffffffffffffffff1681526020019081526020016000206040518060a0016040529081600082015481526020016001820154815260200160028201548152602001600382015481526020016004820160009054906101000a900460ff161515151581525050905060008082602001511115610ea65781602001518260400151610ea391906118d4565b90505b81600001518260200151828460600151955095509550955050509193509193565b60026020528160005260406000208181548110610ee357600080fd5b90600052602060002001600091509150505481565b600080fd5b600080fd5b6000819050919050565b610f1581610f02565b8114610f2057600080fd5b50565b600081359050610f3281610f0c565b92915050565b600060208284031215610f4e57610f4d610ef8565b5b6000610f5c84828501610f23565b91505092915050565b6000819050919050565b610f7881610f65565b82525050565b6000602082019050610f936000830184610f6f565b92915050565b600081519050919050565b600082825260208201905092915050565b6000819050602082019050919050565b610fce81610f65565b82525050565b6000610fe08383610fc5565b60208301905092915050565b6000602082019050919050565b600061100482610f99565b61100e8185610fa4565b935061101983610fb5565b8060005b8381101561104a5781516110318882610fd4565b975061103c83610fec565b92505060018101905061101d565b5085935050505092915050565b600060208201905081810360008301526110718184610ff9565b905092915050565b600073ffffffffffffffffffffffffffffffffffffffff82169050919050565b60006110a482611079565b9050919050565b6110b481611099565b81146110bf57600080fd5b50565b6000813590506110d1816110ab565b92915050565b6000602082840312156110ed576110ec610ef8565b5b60006110fb848285016110c2565b91505092915050565b61110d81610f02565b82525050565b60008115159050919050565b61112881611113565b82525050565b600060a0820190506111436000830188611104565b6111506020830187611104565b61115d6040830186611104565b61116a6060830185611104565b611177608083018461111f565b9695505050505050565b60006020820190506111966000830184611104565b92915050565b6111a581610f65565b81146111b057600080fd5b50565b6000813590506111c28161119c565b92915050565b6000602082840312156111de576111dd610ef8565b5b60006111ec848285016111b3565b91505092915050565b6111fe81611099565b82525050565b600081519050919050565b600082825260208201905092915050565b60005b8381101561123e578082015181840152602081019050611223565b60008484015250505050565b6000601f19601f8301169050919050565b600061126682611204565b611270818561120f565b9350611280818560208601611220565b6112898161124a565b840191505092915050565b600060ff82169050919050565b6112aa81611294565b82525050565b600060e0820190506112c5600083018a610f6f565b6112d260208301896111f5565b6112df6040830188611104565b6112ec6060830187611104565b81810360808301526112fe818661125b565b905061130d60a083018561111f565b61131a60c08301846112a1565b98975050505050505050565b61132f81611294565b811461133a57600080fd5b50565b60008135905061134c81611326565b92915050565b6000806040838503121561136957611368610ef8565b5b6000611377858286016111b3565b92505060206113888582860161133d565b9150509250929050565b600080fd5b600080fd5b600080fd5b60008083601f8401126113b7576113b6611392565b5b8235905067ffffffffffffffff8111156113d4576113d3611397565b5b6020830191508360018202830111156113f0576113ef61139c565b5b9250929050565b6000806000806060858703121561141157611410610ef8565b5b600061141f878288016111b3565b945050602061143087828801610f23565b935050604085013567ffffffffffffffff81111561145157611450610efd565b5b61145d878288016113a1565b925092505092959194509250565b600060c08201905061148060008301896111f5565b61148d6020830188611104565b61149a6040830187611104565b81810360608301526114ac818661125b565b90506114bb608083018561111f565b6114c860a08301846112a1565b979650505050505050565b60006080820190506114e86000830187611104565b6114f56020830186611104565b6115026040830185611104565b61150f6060830184611104565b95945050505050565b6000806040838503121561152f5761152e610ef8565b5b600061153d858286016110c2565b925050602061154e85828601610f23565b9150509250929050565b7f4e487b7100000000000000000000000000000000000000000000000000000000600052604160045260246000fd5b7f4e487b7100000000000000000000000000000000000000000000000000000000600052601160045260246000fd5b60006115c182610f02565b91506115cc83610f02565b92508282039050818111156115e4576115e3611587565b5b92915050565b7f4e487b7100000000000000000000000000000000000000000000000000000000600052603260045260246000fd5b600061162482610f02565b91507fffffffffffffffffffffffffffffffffffffffffffffffffffffffffffffffff820361165657611655611587565b5b600182019050919050565b7f4e487b7100000000000000000000000000000000000000000000000000000000600052602260045260246000fd5b600060028204905060018216806116a857607f821691505b6020821081036116bb576116ba611661565b5b50919050565b7f50726564696374696f6e20646f6573206e6f7420657869737400000000000000600082015250565b60006116f760198361120f565b9150611702826116c1565b602082019050919050565b60006020820190508181036000830152611726816116ea565b9050919050565b7f4163637572616379206d75737420626520302d31303000000000000000000000600082015250565b600061176360168361120f565b915061176e8261172d565b602082019050919050565b6000602082019050818103600083015261179281611756565b9050919050565b7f416c726561647920766572696669656400000000000000000000000000000000600082015250565b60006117cf60108361120f565b91506117da82611799565b602082019050919050565b600060208201905081810360008301526117fe816117c2565b9050919050565b7f4f6e6c7920707265646963746f722063616e2076657269667900000000000000600082015250565b600061183b60198361120f565b915061184682611805565b602082019050919050565b6000602082019050818103600083015261186a8161182e565b9050919050565b600061187c82610f02565b915061188783610f02565b925082820190508082111561189f5761189e611587565b5b92915050565b7f4e487b7100000000000000000000000000000000000000000000000000000000600052601260045260246000fd5b60006118df82610f02565b91506118ea83610f02565b9250826118fa576118f96118a5565b5b828204905092915050565b600061191082610f02565b915061191b83610f02565b925082820261192981610f02565b915082820484148315176119405761193f611587565b5b5092915050565b600060408201905061195c60008301856112a1565b6119696020830184611104565b9392505050565b7f50726564696374696f6e20616c72656164792065786973747300000000000000600082015250565b60006119a660198361120f565b91506119b182611970565b602082019050919050565b600060208201905081810360008301526119d581611999565b9050919050565b60008190508160005260206000209050919050565b60006020601f8301049050919050565b600082821b905092915050565b600060088302611a3e7fffffffffffffffffffffffffffffffffffffffffffffffffffffffffffffffff82611a01565b611a488683611a01565b95508019841693508086168417925050509392505050565b6000819050919050565b6000611a85611a80611a7b84610f02565b611a60565b610f02565b9050919050565b6000819050919050565b611a9f83611a6a565b611ab3611aab82611a8c565b848454611a0e565b825550505050565b600090565b611ac8611abb565b611ad3818484611a96565b505050565b5b81811015611af757611aec600082611ac0565b600181019050611ad9565b5050565b601f821115611b3c57611b0d816119dc565b611b16846119f1565b81016020851015611b25578190505b611b39611b31856119f1565b830182611ad8565b50505b505050565b600082821c905092915050565b6000611b5f60001984600802611b41565b1980831691505092915050565b6000611b788383611b4e565b9150826002028217905092915050565b611b9182611204565b67ffffffffffffffff811115611baa57611ba9611558565b5b611bb48254611690565b611bbf828285611afb565b600060209050601f831160018114611bf25760008415611be0578287015190505b611bea8582611b6c565b865550611c52565b601f198416611c00866119dc565b60005b82811015611c2857848901518255600182019150602085019450602081019050611c03565b86831015611c455784890151611c41601f891682611b4e565b8355505b6001600288020188555050505b505050505050565b82818337600083830152505050565b6000611c75838561120f565b9350611c82838584611c5a565b611c8b8361124a565b840190509392505050565b6000606082019050611cab6000830187611104565b611cb86020830186611104565b8181036040830152611ccb818486611c69565b90509594505050505056fea26469706673582212206baf4291c9ab2d24f4563361f3e1ff2f51e471fa1c431f96f4454324928768d164736f6c63430008140033",
  "linkReferences": {},
  "deployedLinkReferences": {}
}