{
  "_format": "hh-sol-artifact-1",
  "contractName": "SecurityOracle",
  "sourceName": "contracts/IntellidexContracts.sol",
  "abi": [
    {
      "inputs": [],
      "stateMutability": "nonpayable",
      "type": "constructor"
    },
    {
      "anonymous": false,
      "inputs": [
        {
          "indexed": true,
          "internalType": "address",
          "name": "flaggedAddress",
          "type": "address"
        },
        {
          "indexed": false,
          "internalType": "uint256",
          "name": "timestamp",
          "type": "uint256"
        }
      ],
      "name": "AddressBlacklisted",
      "type": "event"
    },
    {
      "anonymous": false,
      "inputs": [
        {
          "indexed": true,
          "internalType": "bytes32",
          "name": "alertId",
          "type": "bytes32"
        },
        {
          "indexed": true,
          "internalType": "address",
          "name": "flaggedAddress",
          "type": "address"
        },
        {
          "indexed": false,
          "internalType": "enum SecurityOracle.RiskLevel",
          "name": "riskLevel",
          "type": "uint8"
        },
        {
          "indexed": false,
          "internalType": "uint8",
          "name": "riskScore",
          "type": "uint8"
        }
      ],
      "name": "AlertCreated",
      "type": "event"
    },
    {
      "anonymous": false,
      "inputs": [
        {
          "indexed": true,
          "internalType": "bytes32",
          "name": "alertId",
          "type": "bytes32"
        },
        {
          "indexed": false,
          "internalType": "uint256",
          "name": "timestamp",
          "type": "uint256"
        }
      ],
      "name": "AlertResolved",
      "type": "event"
    },
    {
      "inputs": [
        {
          "internalType": "address",
          "name": "_oracle",
          "type": "address"
        }
      ],
      "name": "addOracle",
      "outputs": [],
      "stateMutability": "nonpayable",
      "type": "function"
    },
    {
      "inputs": [
        {
          "internalType": "address",
          "name": "",
          "type": "address"
        },
        {
          "internalType": "uint256",
          "name": "",
          "type": "uint256"
        }
      ],
      "name": "addressAlerts",
      "outputs": [
        {
          "internalType": "bytes32",
          "name": "",
          "type": "bytes32"
        }
      ],
      "stateMutability": "view",
      "type": "function"
    },
    {
      "inputs": [
        {
          "internalType": "bytes32",
          "name": "",
          "type": "bytes32"
        }
      ],
      "name": "alerts",
      "outputs": [
        {
          "internalType": "bytes32",
          "name": "alertId",
          "type": "bytes32"
        },
        {
          "internalType": "address",
          "name": "flaggedAddress",
          "type": "address"
        },
        {
          "internalType": "enum SecurityOracle.RiskLevel",
          "name": "riskLevel",
          "type": "uint8"
        },
        {
          "internalType": "uint8",
          "name": "riskScore",
          "type": "uint8"
        },
        {
          "internalType": "string",
          "name": "alertType",
          "type": "string"
        },
        {
          "internalType": "uint256",
          "name": "timestamp",
          "type": "uint256"
        },
        {
          "internalType": "bool",
          "name": "resolved",
          "type": "bool"
        }
      ],
      "stateMutability": "view",
      "type": "function"
    },
    {
      "inputs": [
        {
          "internalType": "uint256",
          "name": "",
          "type": "uint256"
        }
      ],
      "name": "allAlerts",
      "outputs": [
        {
          "internalType": "bytes32",
          "name": "",
          "type": "bytes32"
        }
      ],
      "stateMutability": "view",
      "type": "function"
    },
    {
      "inputs": [
        {
          "internalType": "uint256",
          "name": "",
          "type": "uint256"
        }
      ],
      "name": "blacklistedAddresses",
      "outputs": [
        {
          "internalType": "address",
          "name": "",
          "type": "address"
        }
      ],
      "stateMutability": "view",
      "type": "function"
    },
    {
      "inputs": [
        {
          "internalType": "address",
          "name": "_flaggedAddress",
          "type": "address"
        },
        {
          "internalType": "uint8",
          "name": "_riskScore",
          "type": "uint8"
        },
        {
          "internalType": "string",
          "name": "_alertType",
          "type": "string"
        }
      ],
      "name": "createAlert",
      "outputs": [
        {
          "internalType": "bytes32",
          "name": "",
          "type": "bytes32"
        }
      ],
      "stateMutability": "nonpayable",
      "type": "function"
    },
    {
      "inputs": [
        {
          "internalType": "address",
          "name": "_address",
          "type": "address"
        }
      ],
      "name": "getAddressAlerts",
      "outputs": [
        {
          "internalType": "bytes32[]",
          "name": "",
          "type": "bytes32[]"
        }
      ],
      "stateMutability": "view",
      "type": "function"
    },
    {
      "inputs": [],
      "name": "getBlacklistedAddresses",
      "outputs": [
        {
          "internalType": "address[]",
          "name": "",
          "type": "address[]"
        }
      ],
      "stateMutability": "view",
      "type": "function"
    },
    {
      "inputs": [
        {
          "internalType": "address",
          "name": "_address",
          "type": "address"
        }
      ],
      "name": "getRiskProfile",
      "outputs": [
        {
          "internalType": "uint8",
          "name": "currentRiskScore",
          "type": "uint8"
        },
        {
          "internalType": "uint256",
          "name": "totalAlerts",
          "type": "uint256"
        },
        {
          "internalType": "uint256",
          "name": "criticalAlerts",
          "type": "uint256"
        },
        {
          "internalType": "bool",
          "name": "isBlacklisted",
          "type": "bool"
        }
      ],
      "stateMutability": "view",
      "type": "function"
    },
    {
      "inputs": [
        {
          "internalType": "address",
          "name": "_address",
          "type": "address"
        }
      ],
      "name": "isHighRisk",
      "outputs": [
        {
          "internalType": "bool",
          "name": "",
          "type": "bool"
        },
        {
          "internalType": "uint8",
          "name": "",
          "type": "uint8"
        }
      ],
      "stateMutability": "view",
      "type": "function"
    },
    {
      "inputs": [
        {
          "internalType": "address",
          "name": "",
          "type": "address"
        }
      ],
      "name": "oracles",
      "outputs": [
        {
          "internalType": "bool",
          "name": "",
          "type": "bool"
        }
      ],
      "stateMutability": "view",
      "type": "function"
    },
    {
      "inputs": [],
      "name": "owner",
      "outputs": [
        {
          "internalType": "address",
          "name": "",
          "type": "address"
        }
      ],
      "stateMutability": "view",
      "type": "function"
    },
    {
      "inputs": [
        {
          "internalType": "address",
          "name": "_oracle",
          "type": "address"
        }
      ],
      "name": "removeOracle",
      "outputs": [],
      "stateMutability": "nonpayable",
      "type": "function"
    },
    {
      "inputs": [
        {
          "internalType": "bytes32",
          "name": "_alertId",
          "type": "bytes32"
        }
      ],
      "name": "resolveAlert",
      "outputs": [],
      "stateMutability": "nonpayable",
      "type": "function"
    },
    {
      "inputs": [
        {
          "internalType": "address",
          "name": "",
          "type": "address"
        }
      ],
      "name": "riskProfiles",
      "outputs": [
        {
          "internalType": "uint8",
          "name": "currentRiskScore",
          "type": "uint8"
        },
        {
          "internalType": "uint256",
          "name": "totalAlerts",
          "type": "uint256"
        },
        {
          "internalType": "uint256",
          "name": "criticalAlerts",
          "type": "uint256"
        },
        {
          "internalType": "bool",
          "name": "isBlacklisted",
          "type": "bool"
        },
        {
          "internalType": "uint256",
          "name": "lastUpdate",
          "type": "uint256"
        }
      ],
      "stateMutability": "view",
      "type": "function"
    }
  ],
  "bytecode": "0x608060405234801561001057600080fd5b5033600560006101000a81548173ffffffffffffffffffffffffffffffffffffffff021916908373ffffffffffffffffffffffffffffffffffffffff1602179055506001600660003373ffffffffffffffffffffffffffffffffffffffff1673ffffffffffffffffffffffffffffffffffffffff16815260200190815260200160002060006101000a81548160ff021916908315150217905550612093806100b96000396000f3fe608060405234801561001057600080fd5b50600436106100f55760003560e01c8063a7a8c35911610097578063d12f866311610066578063d12f8663146102df578063dc3d7e8a1461030f578063df5dd1a514610340578063fdc85fc41461035c576100f5565b8063a7a8c35914610216578063addd509914610246578063baf1e57f14610276578063bce9252d146102a9576100f5565b80638da5cb5b116100d35780638da5cb5b146101645780638f75298e146101825780639948b18d146101b25780639c26678b146101e6576100f5565b80630c9a3209146100fa5780633bbab1791461011657806386b048b214610134575b600080fd5b610114600480360381019061010f919061128a565b610378565b005b61011e610580565b60405161012b91906113a7565b60405180910390f35b61014e600480360381019061014991906113ff565b61060e565b60405161015b919061143b565b60405180910390f35b61016c610632565b6040516101799190611465565b60405180910390f35b61019c6004803603810190610197919061154a565b610658565b6040516101a9919061143b565b60405180910390f35b6101cc60048036038101906101c791906115be565b610c4a565b6040516101dd959493929190611624565b60405180910390f35b61020060048036038101906101fb91906115be565b610c9a565b60405161020d9190611735565b60405180910390f35b610230600480360381019061022b91906113ff565b610d31565b60405161023d9190611465565b60405180910390f35b610260600480360381019061025b91906115be565b610d70565b60405161026d9190611757565b60405180910390f35b610290600480360381019061028b91906115be565b610d90565b6040516102a09493929190611772565b60405180910390f35b6102c360048036038101906102be919061128a565b610e5e565b6040516102d697969594939291906118be565b60405180910390f35b6102f960048036038101906102f49190611934565b610f6f565b604051610306919061143b565b60405180910390f35b610329600480360381019061032491906115be565b610fa0565b604051610337929190611974565b60405180910390f35b61035a600480360381019061035591906115be565b611074565b005b610376600480360381019061037191906115be565b61115f565b005b600660003373ffffffffffffffffffffffffffffffffffffffff1673ffffffffffffffffffffffffffffffffffffffff16815260200190815260200160002060009054906101000a900460ff168061041d5750600560009054906101000a900473ffffffffffffffffffffffffffffffffffffffff1673ffffffffffffffffffffffffffffffffffffffff163373ffffffffffffffffffffffffffffffffffffffff16145b61045c576040517f08c379a0000000000000000000000000000000000000000000000000000000008152600401610453906119e9565b60405180910390fd5b600080600083815260200190815260200160002060030154036104b4576040517f08c379a00000000000000000000000000000000000000000000000000000000081526004016104ab90611a55565b60405180910390fd5b60008082815260200190815260200160002060040160009054906101000a900460ff1615610517576040517f08c379a000000000000000000000000000000000000000000000000000000000815260040161050e90611ac1565b60405180910390fd5b600160008083815260200190815260200160002060040160006101000a81548160ff021916908315150217905550807f435f3e1b992c687e370eac332f1cec23ab58e7bd815e30f712a4556ab89cf647426040516105759190611ae1565b60405180910390a250565b6060600480548060200260200160405190810160405280929190818152602001828054801561060457602002820191906000526020600020905b8160009054906101000a900473ffffffffffffffffffffffffffffffffffffffff1673ffffffffffffffffffffffffffffffffffffffff16815260200190600101908083116105ba575b5050505050905090565b6003818154811061061e57600080fd5b906000526020600020016000915090505481565b600560009054906101000a900473ffffffffffffffffffffffffffffffffffffffff1681565b6000600660003373ffffffffffffffffffffffffffffffffffffffff1673ffffffffffffffffffffffffffffffffffffffff16815260200190815260200160002060009054906101000a900460ff16806106ff5750600560009054906101000a900473ffffffffffffffffffffffffffffffffffffffff1673ffffffffffffffffffffffffffffffffffffffff163373ffffffffffffffffffffffffffffffffffffffff16145b61073e576040517f08c379a0000000000000000000000000000000000000000000000000000000008152600401610735906119e9565b60405180910390fd5b60648460ff161115610785576040517f08c379a000000000000000000000000000000000000000000000000000000000815260040161077c90611b48565b60405180910390fd5b600085428660405160200161079c93929190611c07565b604051602081830303815290604052805190602001209050600060508660ff16106107ca57600390506107f9565b603c8660ff16106107de57600290506107f8565b60288660ff16106107f257600190506107f7565b600090505b5b5b60006040518060e001604052808481526020018973ffffffffffffffffffffffffffffffffffffffff16815260200183600381111561083b5761083a6117b7565b5b81526020018860ff16815260200187878080601f016020809104026020016040519081016040528093929190818152602001838380828437600081840152601f19601f820116905080830192505050505050508152602001428152602001600015158152509050806000808581526020019081526020016000206000820151816000015560208201518160010160006101000a81548173ffffffffffffffffffffffffffffffffffffffff021916908373ffffffffffffffffffffffffffffffffffffffff16021790555060408201518160010160146101000a81548160ff02191690836003811115610931576109306117b7565b5b021790555060608201518160010160156101000a81548160ff021916908360ff160217905550608082015181600201908161096c9190611e7f565b5060a0820151816003015560c08201518160040160006101000a81548160ff0219169083151502179055509050506003839080600181540180825580915050600190039060005260206000200160009091909190915055600260008973ffffffffffffffffffffffffffffffffffffffff1673ffffffffffffffffffffffffffffffffffffffff1681526020019081526020016000208390806001815401808255809150506001900390600052602060002001600090919091909150556000600160008a73ffffffffffffffffffffffffffffffffffffffff1673ffffffffffffffffffffffffffffffffffffffff1681526020019081526020016000209050878160000160006101000a81548160ff021916908360ff160217905550806001016000815480929190610a9e90611f80565b9190505550428160040181905550600380811115610abf57610abe6117b7565b5b836003811115610ad257610ad16117b7565b5b03610bea57806002016000815480929190610aec90611f80565b91905055506003816002015410158015610b1557508060030160009054906101000a900460ff16155b15610be95760018160030160006101000a81548160ff0219169083151502179055506004899080600181540180825580915050600190039060005260206000200160009091909190916101000a81548173ffffffffffffffffffffffffffffffffffffffff021916908373ffffffffffffffffffffffffffffffffffffffff1602179055508873ffffffffffffffffffffffffffffffffffffffff167f1d2c7e6b911a4ad6c07d780ccd7e533749bff42c2b1d161c21f3fc7c830eb2cc42604051610be09190611ae1565b60405180910390a25b5b8873ffffffffffffffffffffffffffffffffffffffff16847f7f2384354463801efd472958b2006c47617b08c0c8c5756e19a57d304dc23296858b604051610c33929190611fc8565b60405180910390a383945050505050949350505050565b60016020528060005260406000206000915090508060000160009054906101000a900460ff16908060010154908060020154908060030160009054906101000a900460ff16908060040154905085565b6060600260008373ffffffffffffffffffffffffffffffffffffffff1673ffffffffffffffffffffffffffffffffffffffff168152602001908152602001600020805480602002602001604051908101604052809291908181526020018280548015610d2557602002820191906000526020600020905b815481526020019060010190808311610d11575b50505050509050919050565b60048181548110610d4157600080fd5b906000526020600020016000915054906101000a900473ffffffffffffffffffffffffffffffffffffffff1681565b60066020528060005260406000206000915054906101000a900460ff1681565b6000806000806000600160008773ffffffffffffffffffffffffffffffffffffffff1673ffffffffffffffffffffffffffffffffffffffff1681526020019081526020016000206040518060a00160405290816000820160009054906101000a900460ff1660ff1660ff16815260200160018201548152602001600282015481526020016003820160009054906101000a900460ff16151515158152602001600482015481525050905080600001518160200151826040015183606001519450945094509450509193509193565b60006020528060005260406000206000915090508060000154908060010160009054906101000a900473ffffffffffffffffffffffffffffffffffffffff16908060010160149054906101000a900460ff16908060010160159054906101000a900460ff1690806002018054610ed390611ca2565b80601f0160208091040260200160405190810160405280929190818152602001828054610eff90611ca2565b8015610f4c5780601f10610f2157610100808354040283529160200191610f4c565b820191906000526020600020905b815481529060010190602001808311610f2f57829003601f168201915b5050505050908060030154908060040160009054906101000a900460ff16905087565b60026020528160005260406000208181548110610f8b57600080fd5b90600052602060002001600091509150505481565b6000806000600160008573ffffffffffffffffffffffffffffffffffffffff1673ffffffffffffffffffffffffffffffffffffffff1681526020019081526020016000206040518060a00160405290816000820160009054906101000a900460ff1660ff1660ff16815260200160018201548152602001600282015481526020016003820160009054906101000a900460ff1615151515815260200160048201548152505090506000603c826000015160ff16101580611061575081606001515b9050808260000151935093505050915091565b600560009054906101000a900473ffffffffffffffffffffffffffffffffffffffff1673ffffffffffffffffffffffffffffffffffffffff163373ffffffffffffffffffffffffffffffffffffffff1614611104576040517f08c379a00000000000000000000000000000000000000000000000000000000081526004016110fb9061203d565b60405180910390fd5b6001600660008373ffffffffffffffffffffffffffffffffffffffff1673ffffffffffffffffffffffffffffffffffffffff16815260200190815260200160002060006101000a81548160ff02191690831515021790555050565b600560009054906101000a900473ffffffffffffffffffffffffffffffffffffffff1673ffffffffffffffffffffffffffffffffffffffff163373ffffffffffffffffffffffffffffffffffffffff16146111ef576040517f08c379a00000000000000000000000000000000000000000000000000000000081526004016111e69061203d565b60405180910390fd5b6000600660008373ffffffffffffffffffffffffffffffffffffffff1673ffffffffffffffffffffffffffffffffffffffff16815260200190815260200160002060006101000a81548160ff02191690831515021790555050565b600080fd5b600080fd5b6000819050919050565b61126781611254565b811461127257600080fd5b50565b6000813590506112848161125e565b92915050565b6000602082840312156112a05761129f61124a565b5b60006112ae84828501611275565b91505092915050565b600081519050919050565b600082825260208201905092915050565b6000819050602082019050919050565b600073ffffffffffffffffffffffffffffffffffffffff82169050919050565b600061130e826112e3565b9050919050565b61131e81611303565b82525050565b60006113308383611315565b60208301905092915050565b6000602082019050919050565b6000611354826112b7565b61135e81856112c2565b9350611369836112d3565b8060005b8381101561139a5781516113818882611324565b975061138c8361133c565b92505060018101905061136d565b5085935050505092915050565b600060208201905081810360008301526113c18184611349565b905092915050565b6000819050919050565b6113dc816113c9565b81146113e757600080fd5b50565b6000813590506113f9816113d3565b92915050565b6000602082840312156114155761141461124a565b5b6000611423848285016113ea565b91505092915050565b61143581611254565b82525050565b6000602082019050611450600083018461142c565b92915050565b61145f81611303565b82525050565b600060208201905061147a6000830184611456565b92915050565b61148981611303565b811461149457600080fd5b50565b6000813590506114a681611480565b92915050565b600060ff82169050919050565b6114c2816114ac565b81146114cd57600080fd5b50565b6000813590506114df816114b9565b92915050565b600080fd5b600080fd5b600080fd5b60008083601f84011261150a576115096114e5565b5b8235905067ffffffffffffffff811115611527576115266114ea565b5b602083019150836001820283011115611543576115426114ef565b5b9250929050565b600080600080606085870312156115645761156361124a565b5b600061157287828801611497565b9450506020611583878288016114d0565b935050604085013567ffffffffffffffff8111156115a4576115a361124f565b5b6115b0878288016114f4565b925092505092959194509250565b6000602082840312156115d4576115d361124a565b5b60006115e284828501611497565b91505092915050565b6115f4816114ac565b82525050565b611603816113c9565b82525050565b60008115159050919050565b61161e81611609565b82525050565b600060a08201905061163960008301886115eb565b61164660208301876115fa565b61165360408301866115fa565b6116606060830185611615565b61166d60808301846115fa565b9695505050505050565b600081519050919050565b600082825260208201905092915050565b6000819050602082019050919050565b6116ac81611254565b82525050565b60006116be83836116a3565b60208301905092915050565b6000602082019050919050565b60006116e282611677565b6116ec8185611682565b93506116f783611693565b8060005b8381101561172857815161170f88826116b2565b975061171a836116ca565b9250506001810190506116fb565b5085935050505092915050565b6000602082019050818103600083015261174f81846116d7565b905092915050565b600060208201905061176c6000830184611615565b92915050565b600060808201905061178760008301876115eb565b61179460208301866115fa565b6117a160408301856115fa565b6117ae6060830184611615565b95945050505050565b7f4e487b7100000000000000000000000000000000000000000000000000000000600052602160045260246000fd5b600481106117f7576117f66117b7565b5b50565b6000819050611808826117e6565b919050565b6000611818826117fa565b9050919050565b6118288161180d565b82525050565b600081519050919050565b600082825260208201905092915050565b60005b8381101561186857808201518184015260208101905061184d565b60008484015250505050565b6000601f19601f8301169050919050565b60006118908261182e565b61189a8185611839565b93506118aa81856020860161184a565b6118b381611874565b840191505092915050565b600060e0820190506118d3600083018a61142c565b6118e06020830189611456565b6118ed604083018861181f565b6118fa60608301876115eb565b818103608083015261190c8186611885565b905061191b60a08301856115fa565b61192860c0830184611615565b98975050505050505050565b6000806040838503121561194b5761194a61124a565b5b600061195985828601611497565b925050602061196a858286016113ea565b9150509250929050565b60006040820190506119896000830185611615565b61199660208301846115eb565b9392505050565b7f4f6e6c7920617574686f72697a6564206f7261636c6500000000000000000000600082015250565b60006119d3601683611839565b91506119de8261199d565b602082019050919050565b60006020820190508181036000830152611a02816119c6565b9050919050565b7f416c65727420646f6573206e6f74206578697374000000000000000000000000600082015250565b6000611a3f601483611839565b9150611a4a82611a09565b602082019050919050565b60006020820190508181036000830152611a6e81611a32565b9050919050565b7f416c7265616479207265736f6c76656400000000000000000000000000000000600082015250565b6000611aab601083611839565b9150611ab682611a75565b602082019050919050565b60006020820190508181036000830152611ada81611a9e565b9050919050565b6000602082019050611af660008301846115fa565b92915050565b7f5269736b2073636f7265206d75737420626520302d3130300000000000000000600082015250565b6000611b32601883611839565b9150611b3d82611afc565b602082019050919050565b60006020820190508181036000830152611b6181611b25565b9050919050565b60008160601b9050919050565b6000611b8082611b68565b9050919050565b6000611b9282611b75565b9050919050565b611baa611ba582611303565b611b87565b82525050565b6000819050919050565b611bcb611bc6826113c9565b611bb0565b82525050565b60008160f81b9050919050565b6000611be982611bd1565b9050919050565b611c01611bfc826114ac565b611bde565b82525050565b6000611c138286611b99565b601482019150611c238285611bba565b602082019150611c338284611bf0565b600182019150819050949350505050565b7f4e487b7100000000000000000000000000000000000000000000000000000000600052604160045260246000fd5b7f4e487b7100000000000000000000000000000000000000000000000000000000600052602260045260246000fd5b60006002820490506001821680611cba57607f821691505b602082108103611ccd57611ccc611c73565b5b50919050565b60008190508160005260206000209050919050565b60006020601f8301049050919050565b600082821b905092915050565b600060088302611d357fffffffffffffffffffffffffffffffffffffffffffffffffffffffffffffffff82611cf8565b611d3f8683611cf8565b95508019841693508086168417925050509392505050565b6000819050919050565b6000611d7c611d77611d72846113c9565b611d57565b6113c9565b9050919050565b6000819050919050565b611d9683611d61565b611daa611da282611d83565b848454611d05565b825550505050565b600090565b611dbf611db2565b611dca818484611d8d565b505050565b5b81811015611dee57611de3600082611db7565b600181019050611dd0565b5050565b601f821115611e3357611e0481611cd3565b611e0d84611ce8565b81016020851015611e1c578190505b611e30611e2885611ce8565b830182611dcf565b50505b505050565b600082821c905092915050565b6000611e5660001984600802611e38565b1980831691505092915050565b6000611e6f8383611e45565b9150826002028217905092915050565b611e888261182e565b67ffffffffffffffff811115611ea157611ea0611c44565b5b611eab8254611ca2565b611eb6828285611df2565b600060209050601f831160018114611ee95760008415611ed7578287015190505b611ee18582611e63565b865550611f49565b601f198416611ef786611cd3565b60005b82811015611f1f57848901518255600182019150602085019450602081019050611efa565b86831015611f3c5784890151611f38601f891682611e45565b8355505b6001600288020188555050505b505050505050565b7f4e487b7100000000000000000000000000000000000000000000000000000000600052601160045260246000fd5b6000611f8b826113c9565b91507fffffffffffffffffffffffffffffffffffffffffffffffffffffffffffffffff8203611fbd57611fbc611f51565b5b600182019050919050565b6000604082019050611fdd600083018561181f565b611fea60208301846115eb565b9392505050565b7f4f6e6c79206f776e657200000000000000000000000000000000000000000000600082015250565b6000612027600a83611839565b915061203282611ff1565b602082019050919050565b600060208201905081810360008301526120568161201a565b905091905056fea2646970667358221220602cb992aa4008e84c1429d5fe76b0e997b47d07db697fccedafea0dba3ac30264736f6c63430008140033",
  "linkReferences": {},
  "deployedLinkReferences": {}
}