{"contracts/IntellidexContracts.sol":{"PredictionRegistry":{"abi":[{"anonymous":false,"inputs":[{"indexed":true,"internalType":"bytes32","name":"predictionHash","type":"bytes32"},{"indexed":true,"internalType":"address","name":"predictor","type":"address"},{"indexed":false,"internalType":"uint256","name":"timestamp","type":"uint256"},{"indexed":false,"internalType":"uint256","name":"currentPrice","type":"uint256"},{"indexed":false,"internalType":"string","name":"ipfsCID","type":"string"}],"name":"PredictionRecorded","type":"event"},{"anonymous":false,"inputs":[{"indexed":true,"internalType":"bytes32","name":"predictionHash","type":"bytes32"},{"indexed":false,"internalType":"uint8","name":"accuracyScore","type":"uint8"},{"indexed":false,"internalType":"uint256","name":"reputationChange","type":"uint256"}],"name":"PredictionVerified","type":"event"},{"anonymous":false,"inputs":[{"indexed":true,"internalType":"address","name":"predictor","type":"address"},{"indexed":false,"internalType":"uint256","name":"newReputation","type":"uint256"}],"name":"ReputationUpdated","type":"event"},{"inputs":[{"internalType":"uint256","name":"","type":"uint256"}],"name":"allPredictions","outputs":[{"internalType":"bytes32","name":"","type":"bytes32"}],"stateMutability":"view","type":"function"},{"inputs":[{"internalType":"uint256","name":"_count","type":"uint256"}],"name":"getLatestPredictions","outputs":[{"internalType":"bytes32[]","name":"","type":"bytes32[]"}],"stateMutability":"view","type":"function"},{"inputs":[{"internalType":"bytes32","name":"_predictionHash","type":"bytes32"}],"name":"getPrediction","outputs":[{"internalType":"address","name":"predictor","type":"address"},{"internalType":"uint256","name":"timestamp","type":"uint256"},{"internalType":"uint256","name":"currentPrice","type":"uint256"},{"internalType":"string","name":"ipfsCID","type":"string"},{"internalType":"bool","name":"verified","type":"bool"},{"internalType":"uint8","name":"averageAccuracy","type":"uint8"}],"stateMutability":"view","type":"function"},{"inputs":[{"internalType":"address","name":"_predictor","type":"address"}],"name":"getPredictorPredictions","outputs":[{"internalType":"bytes32[]","name":"","type":"bytes32[]"}],"stateMutability":"view","type":"function"},{"inputs":[{"internalType":"address","name":"_predictor","type":"address"}],"name":"getPredictorStats","outputs":[{"internalType":"uint256","name":"totalPredictions","type":"uint256"},{"internalType":"uint256","name":"verifiedPredictions","type":"uint256"},{"internalType":"uint256","name":"averageAccuracy","type":"uint256"},{"internalType":"uint256","name":"reputationScore","type":"uint256"}],"stateMutability":"view","type":"function"},{"inputs":[],"name":"getTotalPredictions","outputs":[{"internalType":"uint256","name":"","type":"uint256"}],"stateMutability":"view","type":"function"},{"inputs":[{"internalType":"bytes32","name":"","type":"bytes32"}],"name":"predictions","outputs":[{"internalType":"bytes32","name":"predictionHash","type":"bytes32"},{"internalType":"address","name":"predictor","type":"address"},{"internalType":"uint256","name":"timestamp","type":"uint256"},{"internalType":"uint256","name":"currentPrice","type":"uint256"},{"internalType":"string","name":"ipfsCID","type":"string"},{"internalType":"bool","name":"verified","type":"bool"},{"internalType":"uint8","name":"averageAccuracy","type":"uint8"}],"stateMutability":"view","type":"function"},{"inputs":[{"internalType":"address","name":"","type":"address"},{"internalType":"uint256","name":"","type":"uint256"}],"name":"predictorPredictions","outputs":[{"internalType":"bytes32","name":"","type":"bytes32"}],"stateMutability":"view","type":"function"},{"inputs":[{"internalType":"address","name":"","type":"address"}],"name":"predictorStats","outputs":[{"internalType":"uint256","name":"totalPredictions","type":"uint256"},{"internalType":"uint256","name":"verifiedPredictions","type":"uint256"},{"internalType":"uint256","name":"totalAccuracyScore","type":"uint256"},{"internalType":"uint256","name":"reputationScore","type":"uint256"},{"internalType":"bool","name":"isActive","type":"bool"}],"stateMutability":"view","type":"function"},{"inputs":[{"internalType":"bytes32","name":"_predictionHash","type":"bytes32"},{"internalType":"uint256","name":"_currentPrice","type":"uint256"},{"internalType":"string","name":"_ipfsCID","type":"string"}],"name":"recordPrediction","outputs":[],"stateMutability":"nonpayable","type":"function"},{"inputs":[{"internalType":"bytes32","name":"_predictionHash","type":"bytes32"},{"internalType":"uint8","name":"_accuracyScore","type":"uint8"}],"name":"verifyPrediction","outputs":[],"stateMutability":"nonpayable","type":"function"}],"evm":{"bytecode":{"linkReferences":{},"object":"608060405234801561001057600080fd5b50611d0c806100206000396000f3fe608060405234801561001057600080fd5b50600436106100a95760003560e01c80635d9eaeaf116100715780635d9eaeaf14610190578063bbc4a01c146101c6578063be952428146101e2578063dc6423ab146101fe578063e5ecf20914610233578063e9a811d714610266576100a9565b80631847df91146100ae57806320a0846a146100de5780634d4ad46c1461010e5780635536492e146101425780635c58006114610172575b600080fd5b6100c860048036038101906100c39190610f38565b610296565b6040516100d59190610f7e565b60405180910390f35b6100f860048036038101906100f39190610f38565b6102ba565b6040516101059190611057565b60405180910390f35b610128600480360381019061012391906110d7565b6103a5565b60405161013995949392919061112e565b60405180910390f35b61015c600480360381019061015791906110d7565b6103e8565b6040516101699190611057565b60405180910390f35b61017a61047f565b6040516101879190611181565b60405180910390f35b6101aa60048036038101906101a591906111c8565b61048c565b6040516101bd97969594939291906112b0565b60405180910390f35b6101e060048036038101906101db9190611352565b610590565b005b6101fc60048036038101906101f791906113f7565b610923565b005b610218600480360381019061021391906111c8565b610c4d565b60405161022a9695949392919061146b565b60405180910390f35b61024d600480360381019061024891906110d7565b610dea565b60405161025d94939291906114d3565b60405180910390f35b610280600480360381019061027b9190611518565b610ec7565b60405161028d9190610f7e565b60405180910390f35b600381815481106102a657600080fd5b906000526020600020016000915090505481565b60606000600380549050905060008184116102d557836102d7565b815b905060008167ffffffffffffffff8111156102f5576102f4611558565b5b6040519080825280602002602001820160405280156103235781602001602082028036833780820191505090505b50905060005b828110156103995760038160018661034191906115b6565b61034b91906115b6565b8154811061035c5761035b6115ea565b5b906000526020600020015482828151811061037a576103796115ea565b5b602002602001018181525050808061039190611619565b915050610329565b50809350505050919050565b60016020528060005260406000206000915090508060000154908060010154908060020154908060030154908060040160009054906101000a900460ff16905085565b6060600260008373ffffffffffffffffffffffffffffffffffffffff1673ffffffffffffffffffffffffffffffffffffffff16815260200190815260200160002080548060200260200160405190810160405280929190818152602001828054801561047357602002820191906000526020600020905b81548152602001906001019080831161045f575b50505050509050919050565b6000600380549050905090565b60006020528060005260406000206000915090508060000154908060010160009054906101000a900473ffffffffffffffffffffffffffffffffffffffff16908060020154908060030154908060040180546104e790611690565b80601f016020809104026020016040519081016040528092919081815260200182805461051390611690565b80156105605780601f1061053557610100808354040283529160200191610560565b820191906000526020600020905b81548152906001019060200180831161054357829003601f168201915b5050505050908060050160009054906101000a900460ff16908060050160019054906101000a900460ff16905087565b81600080600083815260200190815260200160002060020154036105e9576040517f08c379a00000000000000000000000000000000000000000000000000000000081526004016105e09061170d565b60405180910390fd5b60648260ff161115610630576040517f08c379a000000000000000000000000000000000000000000000000000000000815260040161062790611779565b60405180910390fd5b600080600085815260200190815260200160002090508060050160009054906101000a900460ff1615610698576040517f08c379a000000000000000000000000000000000000000000000000000000000815260040161068f906117e5565b60405180910390fd5b8060010160009054906101000a900473ffffffffffffffffffffffffffffffffffffffff1673ffffffffffffffffffffffffffffffffffffffff163373ffffffffffffffffffffffffffffffffffffffff161461072a576040517f08c379a000000000000000000000000000000000000000000000000000000000815260040161072190611851565b60405180910390fd5b60018160050160006101000a81548160ff021916908315150217905550828160050160016101000a81548160ff021916908360ff1602179055506000600160008360010160009054906101000a900473ffffffffffffffffffffffffffffffffffffffff1673ffffffffffffffffffffffffffffffffffffffff1673ffffffffffffffffffffffffffffffffffffffff16815260200190815260200160002090508060010160008154809291906107e090611619565b91905055508360ff168160020160008282546107fc9190611871565b925050819055506000816001015411156108685760008160010154826002015461082691906118d4565b9050600a82600101548261083a9190611905565b61084491906118d4565b82600301819055506103e882600301541115610866576103e882600301819055505b505b847f97b7f9896c6353c0d52bc67cf3f99deda6783dc7d67ac59d4e0f86aab299555685836003015460405161089e929190611947565b60405180910390a28160010160009054906101000a900473ffffffffffffffffffffffffffffffffffffffff1673ffffffffffffffffffffffffffffffffffffffff167ffc577563f1b9a0461e24abef1e1fcc0d33d3d881f20b5df6dda59de4aae2c82182600301546040516109149190611181565b60405180910390a25050505050565b836000806000838152602001908152602001600020600201541461097c576040517f08c379a0000000000000000000000000000000000000000000000000000000008152600401610973906119bc565b60405180910390fd5b60006040518060e001604052808781526020013373ffffffffffffffffffffffffffffffffffffffff16815260200142815260200186815260200185858080601f016020809104026020016040519081016040528093929190818152602001838380828437600081840152601f19601f820116905080830192505050505050508152602001600015158152602001600060ff168152509050806000808881526020019081526020016000206000820151816000015560208201518160010160006101000a81548173ffffffffffffffffffffffffffffffffffffffff021916908373ffffffffffffffffffffffffffffffffffffffff16021790555060408201518160020155606082015181600301556080820151816004019081610aa19190611b88565b5060a08201518160050160006101000a81548160ff02191690831515021790555060c08201518160050160016101000a81548160ff021916908360ff1602179055509050506003869080600181540180825580915050600190039060005260206000200160009091909190915055600260003373ffffffffffffffffffffffffffffffffffffffff1673ffffffffffffffffffffffffffffffffffffffff1681526020019081526020016000208690806001815401808255809150506001900390600052602060002001600090919091909150556000600160003373ffffffffffffffffffffffffffffffffffffffff1673ffffffffffffffffffffffffffffffffffffffff1681526020019081526020016000209050806000016000815480929190610bcd90611619565b919050555060018160040160006101000a81548160ff0219169083151502179055503373ffffffffffffffffffffffffffffffffffffffff16877fd6093eb96a14a1ec9f416da8b1f0e31826fbb7f1e9e1f92d0c997fd28493b74742898989604051610c3c9493929190611c96565b60405180910390a350505050505050565b6000806000606060008060008060008981526020019081526020016000206040518060e0016040529081600082015481526020016001820160009054906101000a900473ffffffffffffffffffffffffffffffffffffffff1673ffffffffffffffffffffffffffffffffffffffff1673ffffffffffffffffffffffffffffffffffffffff1681526020016002820154815260200160038201548152602001600482018054610cfa90611690565b80601f0160208091040260200160405190810160405280929190818152602001828054610d2690611690565b8015610d735780601f10610d4857610100808354040283529160200191610d73565b820191906000526020600020905b815481529060010190602001808311610d5657829003601f168201915b505050505081526020016005820160009054906101000a900460ff161515151581526020016005820160019054906101000a900460ff1660ff1660ff1681525050905080602001518160400151826060015183608001518460a001518560c001519650965096509650965096505091939550919395565b6000806000806000600160008773ffffffffffffffffffffffffffffffffffffffff1673ffffffffffffffffffffffffffffffffffffffff1681526020019081526020016000206040518060a0016040529081600082015481526020016001820154815260200160028201548152602001600382015481526020016004820160009054906101000a900460ff161515151581525050905060008082602001511115610ea65781602001518260400151610ea391906118d4565b90505b81600001518260200151828460600151955095509550955050509193509193565b60026020528160005260406000208181548110610ee357600080fd5b90600052602060002001600091509150505481565b600080fd5b600080fd5b6000819050919050565b610f1581610f02565b8114610f2057600080fd5b50565b600081359050610f3281610f0c565b92915050565b600060208284031215610f4e57610f4d610ef8565b5b6000610f5c84828501610f23565b91505092915050565b6000819050919050565b610f7881610f65565b82525050565b6000602082019050610f936000830184610f6f565b92915050565b600081519050919050565b600082825260208201905092915050565b6000819050602082019050919050565b610fce81610f65565b82525050565b6000610fe08383610fc5565b60208301905092915050565b6000602082019050919050565b600061100482610f99565b61100e8185610fa4565b935061101983610fb5565b8060005b8381101561104a5781516110318882610fd4565b975061103c83610fec565b92505060018101905061101d565b5085935050505092915050565b600060208201905081810360008301526110718184610ff9565b905092915050565b600073ffffffffffffffffffffffffffffffffffffffff82169050919050565b60006110a482611079565b9050919050565b6110b481611099565b81146110bf57600080fd5b50565b6000813590506110d1816110ab565b92915050565b6000602082840312156110ed576110ec610ef8565b5b60006110fb848285016110c2565b91505092915050565b61110d81610f02565b82525050565b60008115159050919050565b61112881611113565b82525050565b600060a0820190506111436000830188611104565b6111506020830187611104565b61115d6040830186611104565b61116a6060830185611104565b611177608083018461111f565b9695505050505050565b60006020820190506111966000830184611104565b92915050565b6111a581610f65565b81146111b057600080fd5b50565b6000813590506111c28161119c565b92915050565b6000602082840312156111de576111dd610ef8565b5b60006111ec848285016111b3565b91505092915050565b6111fe81611099565b82525050565b600081519050919050565b600082825260208201905092915050565b60005b8381101561123e578082015181840152602081019050611223565b60008484015250505050565b6000601f19601f8301169050919050565b600061126682611204565b611270818561120f565b9350611280818560208601611220565b6112898161124a565b840191505092915050565b600060ff82169050919050565b6112aa81611294565b82525050565b600060e0820190506112c5600083018a610f6f565b6112d260208301896111f5565b6112df6040830188611104565b6112ec6060830187611104565b81810360808301526112fe818661125b565b905061130d60a083018561111f565b61131a60c08301846112a1565b98975050505050505050565b61132f81611294565b811461133a57600080fd5b50565b60008135905061134c81611326565b92915050565b6000806040838503121561136957611368610ef8565b5b6000611377858286016111b3565b92505060206113888582860161133d565b9150509250929050565b600080fd5b600080fd5b600080fd5b60008083601f8401126113b7576113b6611392565b5b8235905067ffffffffffffffff8111156113d4576113d3611397565b5b6020830191508360018202830111156113f0576113ef61139c565b5b9250929050565b6000806000806060858703121561141157611410610ef8565b5b600061141f878288016111b3565b945050602061143087828801610f23565b935050604085013567ffffffffffffffff81111561145157611450610efd565b5b61145d878288016113a1565b925092505092959194509250565b600060c08201905061148060008301896111f5565b61148d6020830188611104565b61149a6040830187611104565b81810360608301526114ac818661125b565b90506114bb608083018561111f565b6114c860a08301846112a1565b979650505050505050565b60006080820190506114e86000830187611104565b6114f56020830186611104565b6115026040830185611104565b61150f6060830184611104565b95945050505050565b6000806040838503121561152f5761152e610ef8565b5b600061153d858286016110c2565b925050602061154e85828601610f23565b9150509250929050565b7f4e487b7100000000000000000000000000000000000000000000000000000000600052604160045260246000fd5b7f4e487b7100000000000000000000000000000000000000000000000000000000600052601160045260246000fd5b60006115c182610f02565b91506115cc83610f02565b92508282039050818111156115e4576115e3611587565b5b92915050565b7f4e487b7100000000000000000000000000000000000000000000000000000000600052603260045260246000fd5b600061162482610f02565b91507fffffffffffffffffffffffffffffffffffffffffffffffffffffffffffffffff820361165657611655611587565b5b600182019050919050565b7f4e487b7100000000000000000000000000000000000000000000000000000000600052602260045260246000fd5b600060028204905060018216806116a857607f821691505b6020821081036116bb576116ba611661565b5b50919050565b7f50726564696374696f6e20646f6573206e6f7420657869737400000000000000600082015250565b60006116f760198361120f565b9150611702826116c1565b602082019050919050565b60006020820190508181036000830152611726816116ea565b9050919050565b7f4163637572616379206d75737420626520302d31303000000000000000000000600082015250565b600061176360168361120f565b915061176e8261172d565b602082019050919050565b6000602082019050818103600083015261179281611756565b9050919050565b7f416c726561647920766572696669656400000000000000000000000000000000600082015250565b60006117cf60108361120f565b91506117da82611799565b602082019050919050565b600060208201905081810360008301526117fe816117c2565b9050919050565b7f4f6e6c7920707265646963746f722063616e2076657269667900000000000000600082015250565b600061183b60198361120f565b915061184682611805565b602082019050919050565b6000602082019050818103600083015261186a8161182e565b9050919050565b600061187c82610f02565b915061188783610f02565b925082820190508082111561189f5761189e611587565b5b92915050565b7f4e487b7100000000000000000000000000000000000000000000000000000000600052601260045260246000fd5b60006118df82610f02565b91506118ea83610f02565b9250826118fa576118f96118a5565b5b828204905092915050565b600061191082610f02565b915061191b83610f02565b925082820261192981610f02565b915082820484148315176119405761193f611587565b5b5092915050565b600060408201905061195c60008301856112a1565b6119696020830184611104565b9392505050565b7f50726564696374696f6e20616c72656164792065786973747300000000000000600082015250565b60006119a660198361120f565b91506119b182611970565b602082019050919050565b600060208201905081810360008301526119d581611999565b9050919050565b60008190508160005260206000209050919050565b60006020601f8301049050919050565b600082821b905092915050565b600060088302611a3e7fffffffffffffffffffffffffffffffffffffffffffffffffffffffffffffffff82611a01565b611a488683611a01565b95508019841693508086168417925050509392505050565b6000819050919050565b6000611a85611a80611a7b84610f02565b611a60565b610f02565b9050919050565b6000819050919050565b611a9f83611a6a565b611ab3611aab82611a8c565b848454611a0e565b825550505050565b600090565b611ac8611abb565b611ad3818484611a96565b505050565b5b81811015611af757611aec600082611ac0565b600181019050611ad9565b5050565b601f821115611b3c57611b0d816119dc565b611b16846119f1565b81016020851015611b25578190505b611b39611b31856119f1565b830182611ad8565b50505b505050565b600082821c905092915050565b6000611b5f60001984600802611b41565b1980831691505092915050565b6000611b788383611b4e565b9150826002028217905092915050565b611b9182611204565b67ffffffffffffffff811115611baa57611ba9611558565b5b611bb48254611690565b611bbf828285611afb565b600060209050601f831160018114611bf25760008415611be0578287015190505b611bea8582611b6c565b865550611c52565b601f198416611c00866119dc565b60005b82811015611c2857848901518255600182019150602085019450602081019050611c03565b86831015611c455784890151611c41601f891682611b4e565b8355505b6001600288020188555050505b505050505050565b82818337600083830152505050565b6000611c75838561120f565b9350611c82838584611c5a565b611c8b8361124a565b840190509392505050565b6000606082019050611cab6000830187611104565b611cb86020830186611104565b8181036040830152611ccb818486611c69565b90509594505050505056fea26469706673582212206baf4291c9ab2d24f4563361f3e1ff2f51e471fa1c431f96f4454324928768d164736f6c63430008140033","opcodes":"PUSH1 0x80 PUSH1 0x40 MSTORE CALLVALUE DUP1 ISZERO PUSH2 0x10 JUMPI PUSH1 0x0 DUP1 REVERT JUMPDEST POP PUSH2 0x1D0C DUP1 PUSH2 0x20 PUSH1 0x0 CODECOPY PUSH1 0x0 RETURN INVALID PUSH1 0x80 PUSH1 0x40 MSTORE CALLVALUE DUP1 ISZERO PUSH2 0x10 JUMPI PUSH1 0x0 DUP1 REVERT JUMPDEST POP PUSH1 0x4 CALLDATASIZE LT PUSH2 0xA9 JUMPI PUSH1 0x0 CALLDATALOAD PUSH1 0xE0 SHR DUP1 PUSH4 0x5D9EAEAF GT PUSH2 0x71 JUMPI DUP1 PUSH4 0x5D9EAEAF EQ PUSH2 0x190 JUMPI DUP1 PUSH4 0xBBC4A01C EQ PUSH2 0x1C6 JUMPI DUP1 PUSH4 0xBE952428 EQ PUSH2 0x1E2 JUMPI DUP1 PUSH4 0xDC6423AB EQ PUSH2 0x1FE JUMPI DUP1 PUSH4 0xE5ECF209 EQ PUSH2 0x233 JUMPI DUP1 PUSH4 0xE9A811D7 EQ PUSH2 0x266 JUMPI PUSH2 0xA9 JUMP JUMPDEST DUP1 PUSH4 0x1847DF91 EQ PUSH2 0xAE JUMPI DUP1 PUSH4 0x20A0846A EQ PUSH2 0xDE JUMPI DUP1 PUSH4 0x4D4AD46C EQ PUSH2 0x10E JUMPI DUP1 PUSH4 0x5536492E EQ PUSH2 0x142 JUMPI DUP1 PUSH4 0x5C580061 EQ PUSH2 0x172 JUMPI JUMPDEST PUSH1 0x0 DUP1 REVERT JUMPDEST PUSH2 0xC8 PUSH1 0x4 DUP1 CALLDATASIZE SUB DUP2 ADD SWAP1 PUSH2 0xC3 SWAP2 SWAP1 PUSH2 0xF38 JUMP JUMPDEST PUSH2 0x296 JUMP JUMPDEST PUSH1 0x40 MLOAD PUSH2 0xD5 SWAP2 SWAP1 PUSH2 0xF7E JUMP JUMPDEST PUSH1 0x40 MLOAD DUP1 SWAP2 SUB SWAP1 RETURN JUMPDEST PUSH2 0xF8 PUSH1 0x4 DUP1 CALLDATASIZE SUB DUP2 ADD SWAP1 PUSH2 0xF3 SWAP2 SWAP1 PUSH2 0xF38 JUMP JUMPDEST PUSH2 0x2BA JUMP JUMPDEST PUSH1 0x40 MLOAD PUSH2 0x105 SWAP2 SWAP1 PUSH2 0x1057 JUMP JUMPDEST PUSH1 0x40 MLOAD DUP1 SWAP2 SUB SWAP1 RETURN JUMPDEST PUSH2 0x128 PUSH1 0x4 DUP1 CALLDATASIZE SUB DUP2 ADD SWAP1 PUSH2 0x123 SWAP2 SWAP1 PUSH2 0x10D7 JUMP JUMPDEST PUSH2 0x3A5 JUMP JUMPDEST PUSH1 0x40 MLOAD PUSH2 0x139 SWAP6 SWAP5 SWAP4 SWAP3 SWAP2 SWAP1 PUSH2 0x112E JUMP JUMPDEST PUSH1 0x40 MLOAD DUP1 SWAP2 SUB SWAP1 RETURN JUMPDEST PUSH2 0x15C PUSH1 0x4 DUP1 CALLDATASIZE SUB DUP2 ADD SWAP1 PUSH2 0x157 SWAP2 SWAP1 PUSH2 0x10D7 JUMP JUMPDEST PUSH2 0x3E8 JUMP JUMPDEST PUSH1 0x40 MLOAD PUSH2 0x169 SWAP2 SWAP1 PUSH2 0x1057 JUMP JUMPDEST PUSH1 0x40 MLOAD DUP1 SWAP2 SUB SWAP1 RETURN JUMPDEST PUSH2 0x17A PUSH2 0x47F JUMP JUMPDEST PUSH1 0x40 MLOAD PUSH2 0x187 SWAP2 SWAP1 PUSH2 0x1181 JUMP JUMPDEST PUSH1 0x40 MLOAD DUP1 SWAP2 SUB SWAP1 RETURN JUMPDEST PUSH2 0x1AA PUSH1 0x4 DUP1 CALLDATASIZE SUB DUP2 ADD SWAP1 PUSH2 0x1A5 SWAP2 SWAP1 PUSH2 0x11C8 JUMP JUMPDEST PUSH2 0x48C JUMP JUMPDEST PUSH1 0x40 MLOAD PUSH2 0x1BD SWAP8 SWAP7 SWAP6 SWAP5 SWAP4 SWAP3 SWAP2 SWAP1 PUSH2 0x12B0 JUMP JUMPDEST PUSH1 0x40 MLOAD DUP1 SWAP2 SUB SWAP1 RETURN JUMPDEST PUSH2 0x1E0 PUSH1 0x4 DUP1 CALLDATASIZE SUB DUP2 ADD SWAP1 PUSH2 0x1DB SWAP2 SWAP1 PUSH2 0x1352 JUMP JUMPDEST PUSH2 0x590 JUMP JUMPDEST STOP JUMPDEST PUSH2 0x1FC PUSH1 0x4 DUP1 CALLDATASIZE SUB DUP2 ADD SWAP1 PUSH2 0x1F7 SWAP2 SWAP1 PUSH2 0x13F7 JUMP JUMPDEST PUSH2 0x923 JUMP JUMPDEST STOP JUMPDEST PUSH2 0x218 PUSH1 0x4 DUP1 CALLDATASIZE SUB DUP2 ADD SWAP1 PUSH2 0x213 SWAP2 SWAP1 PUSH2 0x11C8 JUMP JUMPDEST PUSH2 0xC4D JUMP JUMPDEST PUSH1 0x40 MLOAD PUSH2 0x22A SWAP7 SWAP6 SWAP5 SWAP4 SWAP3 SWAP2 SWAP1 PUSH2 0x146B JUMP JUMPDEST PUSH1 0x40 MLOAD DUP1 SWAP2 SUB SWAP1 RETURN JUMPDEST PUSH2 0x24D PUSH1 0x4 DUP1 CALLDATASIZE SUB DUP2 ADD SWAP1 PUSH2 0x248 SWAP2 SWAP1 PUSH2 0x10D7 JUMP JUMPDEST PUSH2 0xDEA JUMP JUMPDEST PUSH1 0x40 MLOAD PUSH2 0x25D SWAP5 SWAP4 SWAP3 SWAP2 SWAP1 PUSH2 0x14D3 JUMP JUMPDEST PUSH1 0x40 MLOAD DUP1 SWAP2 SUB SWAP1 RETURN JUMPDEST PUSH2 0x280 PUSH1 0x4 DUP1 CALLDATASIZE SUB DUP2 ADD SWAP1 PUSH2 0x27B SWAP2 SWAP1 PUSH2 0x1518 JUMP JUMPDEST PUSH2 0xEC7 JUMP JUMPDEST PUSH1 0x40 MLOAD PUSH2 0x28D SWAP2 SWAP1 PUSH2 0xF7E JUMP JUMPDEST PUSH1 0x40 MLOAD DUP1 SWAP2 SUB SWAP1 RETURN JUMPDEST PUSH1 0x3 DUP2 DUP2 SLOAD DUP2 LT PUSH2 0x2A6 JUMPI PUSH1 0x0 DUP1 REVERT JUMPDEST SWAP1 PUSH1 0x0 MSTORE PUSH1 0x20 PUSH1 0x0 KECCAK256 ADD PUSH1 0x0 SWAP2 POP SWAP1 POP SLOAD DUP2 JUMP JUMPDEST PUSH1 0x60 PUSH1 0x0 PUSH1 0x3 DUP1 SLOAD SWAP1 POP SWAP1 POP PUSH1 0x0 DUP2 DUP5 GT PUSH2 0x2D5 JUMPI DUP4 PUSH2 0x2D7 JUMP JUMPDEST DUP2 JUMPDEST SWAP1 POP PUSH1 0x0 DUP2 PUSH8 0xFFFFFFFFFFFFFFFF DUP2 GT ISZERO PUSH2 0x2F5 JUMPI PUSH2 0x2F4 PUSH2 0x1558 JUMP JUMPDEST JUMPDEST PUSH1 0x40 MLOAD SWAP1 DUP1 DUP3 MSTORE DUP1 PUSH1 0x20 MUL PUSH1 0x20 ADD DUP3 ADD PUSH1 0x40 MSTORE DUP1 ISZERO PUSH2 0x323 JUMPI DUP2 PUSH1 0x20 ADD PUSH1 0x20 DUP3 MUL DUP1 CALLDATASIZE DUP4 CALLDATACOPY DUP1 DUP3 ADD SWAP2 POP POP SWAP1 POP JUMPDEST POP SWAP1 POP PUSH1 0x0 JUMPDEST DUP3 DUP2 LT ISZERO PUSH2 0x399 JUMPI PUSH1 0x3 DUP2 PUSH1 0x1 DUP7 PUSH2 0x341 SWAP2 SWAP1 PUSH2 0x15B6 JUMP JUMPDEST PUSH2 0x34B SWAP2 SWAP1 PUSH2 0x15B6 JUMP JUMPDEST DUP2 SLOAD DUP2 LT PUSH2 0x35C JUMPI PUSH2 0x35B PUSH2 0x15EA JUMP JUMPDEST JUMPDEST SWAP1 PUSH1 0x0 MSTORE PUSH1 0x20 PUSH1 0x0 KECCAK256 ADD SLOAD DUP3 DUP3 DUP2 MLOAD DUP2 LT PUSH2 0x37A JUMPI PUSH2 0x379 PUSH2 0x15EA JUMP JUMPDEST JUMPDEST PUSH1 0x20 MUL PUSH1 0x20 ADD ADD DUP2 DUP2 MSTORE POP POP DUP1 DUP1 PUSH2 0x391 SWAP1 PUSH2 0x1619 JUMP JUMPDEST SWAP2 POP POP PUSH2 0x329 JUMP JUMPDEST POP DUP1 SWAP4 POP POP POP POP SWAP2 SWAP1 POP JUMP JUMPDEST PUSH1 0x1 PUSH1 0x20 MSTORE DUP1 PUSH1 0x0 MSTORE PUSH1 0x40 PUSH1 0x0 KECCAK256 PUSH1 0x0 SWAP2 POP SWAP1 POP DUP1 PUSH1 0x0 ADD SLOAD SWAP1 DUP1 PUSH1 0x1 ADD SLOAD SWAP1 DUP1 PUSH1 0x2 ADD SLOAD SWAP1 DUP1 PUSH1 0x3 ADD SLOAD SWAP1 DUP1 PUSH1 0x4 ADD PUSH1 0x0 SWAP1 SLOAD SWAP1 PUSH2 0x100 EXP SWAP1 DIV PUSH1 0xFF AND SWAP1 POP DUP6 JUMP JUMPDEST PUSH1 0x60 PUSH1 0x2 PUSH1 0x0 DUP4 PUSH20 0xFFFFFFFFFFFFFFFFFFFFFFFFFFFFFFFFFFFFFFFF AND PUSH20 0xFFFFFFFFFFFFFFFFFFFFFFFFFFFFFFFFFFFFFFFF AND DUP2 MSTORE PUSH1 0x20 ADD SWAP1 DUP2 MSTORE PUSH1 0x20 ADD PUSH1 0x0 KECCAK256 DUP1 SLOAD DUP1 PUSH1 0x20 MUL PUSH1 0x20 ADD PUSH1 0x40 MLOAD SWAP1 DUP2 ADD PUSH1 0x40 MSTORE DUP1 SWAP3 SWAP2 SWAP1 DUP2 DUP2 MSTORE PUSH1 0x20 ADD DUP3 DUP1 SLOAD DUP1 ISZERO PUSH2 0x473 JUMPI PUSH1 0x20 MUL DUP3 ADD SWAP2 SWAP1 PUSH1 0x0 MSTORE PUSH1 0x20 PUSH1 0x0 KECCAK256 SWAP1 JUMPDEST DUP2 SLOAD DUP2 MSTORE PUSH1 0x20 ADD SWAP1 PUSH1 0x1 ADD SWAP1 DUP1 DUP4 GT PUSH2 0x45F JUMPI JUMPDEST POP POP POP POP POP SWAP1 POP SWAP2 SWAP1 POP JUMP JUMPDEST PUSH1 0x0 PUSH1 0x3 DUP1 SLOAD SWAP1 POP SWAP1 POP SWAP1 JUMP JUMPDEST PUSH1 0x0 PUSH1 0x20 MSTORE DUP1 PUSH1 0x0 MSTORE PUSH1 0x40 PUSH1 0x0 KECCAK256 PUSH1 0x0 SWAP2 POP SWAP1 POP DUP1 PUSH1 0x0 ADD SLOAD SWAP1 DUP1 PUSH1 0x1 ADD PUSH1 0x0 SWAP1 SLOAD SWAP1 PUSH2 0x100 EXP SWAP1 DIV PUSH20 0xFFFFFFFFFFFFFFFFFFFFFFFFFFFFFFFFFFFFFFFF AND SWAP1 DUP1 PUSH1 0x2 ADD SLOAD SWAP1 DUP1 PUSH1 0x3 ADD SLOAD SWAP1 DUP1 PUSH1 0x4 ADD DUP1 SLOAD PUSH2 0x4E7 SWAP1 PUSH2 0x1690 JUMP JUMPDEST DUP1 PUSH1 0x1F ADD PUSH1 0x20 DUP1 SWAP2 DIV MUL PUSH1 0x20 ADD PUSH1 0x40 MLOAD SWAP1 DUP2 ADD PUSH1 0x40 MSTORE DUP1 SWAP3 SWAP2 SWAP1 DUP2 DUP2 MSTORE PUSH1 0x20 ADD DUP3 DUP1 SLOAD PUSH2 0x513 SWAP1 PUSH2 0x1690 JUMP JUMPDEST DUP1 ISZERO PUSH2 0x560 JUMPI DUP1 PUSH1 0x1F LT PUSH2 0x535 JUMPI PUSH2 0x100 DUP1 DUP4 SLOAD DIV MUL DUP4 MSTORE SWAP2 PUSH1 0x20 ADD SWAP2 PUSH2 0x560 JUMP JUMPDEST DUP3 ADD SWAP2 SWAP1 PUSH1 0x0 MSTORE PUSH1 0x20 PUSH1 0x0 KECCAK256 SWAP1 JUMPDEST DUP2 SLOAD DUP2 MSTORE SWAP1 PUSH1 0x1 ADD SWAP1 PUSH1 0x20 ADD DUP1 DUP4 GT PUSH2 0x543 JUMPI DUP3 SWAP1 SUB PUSH1 0x1F AND DUP3 ADD SWAP2 JUMPDEST POP POP POP POP POP SWAP1 DUP1 PUSH1 0x5 ADD PUSH1 0x0 SWAP1 SLOAD SWAP1 PUSH2 0x100 EXP SWAP1 DIV PUSH1 0xFF AND SWAP1 DUP1 PUSH1 0x5 ADD PUSH1 0x1 SWAP1 SLOAD SWAP1 PUSH2 0x100 EXP SWAP1 DIV PUSH1 0xFF AND SWAP1 POP DUP8 JUMP JUMPDEST DUP2 PUSH1 0x0 DUP1 PUSH1 0x0 DUP4 DUP2 MSTORE PUSH1 0x20 ADD SWAP1 DUP2 MSTORE PUSH1 0x20 ADD PUSH1 0x0 KECCAK256 PUSH1 0x2 ADD SLOAD SUB PUSH2 0x5E9 JUMPI PUSH1 0x40 MLOAD PUSH32 0x8C379A000000000000000000000000000000000000000000000000000000000 DUP2 MSTORE PUSH1 0x4 ADD PUSH2 0x5E0 SWAP1 PUSH2 0x170D JUMP JUMPDEST PUSH1 0x40 MLOAD DUP1 SWAP2 SUB SWAP1 REVERT JUMPDEST PUSH1 0x64 DUP3 PUSH1 0xFF AND GT ISZERO PUSH2 0x630 JUMPI PUSH1 0x40 MLOAD PUSH32 0x8C379A000000000000000000000000000000000000000000000000000000000 DUP2 MSTORE PUSH1 0x4 ADD PUSH2 0x627 SWAP1 PUSH2 0x1779 JUMP JUMPDEST PUSH1 0x40 MLOAD DUP1 SWAP2 SUB SWAP1 REVERT JUMPDEST PUSH1 0x0 DUP1 PUSH1 0x0 DUP6 DUP2 MSTORE PUSH1 0x20 ADD SWAP1 DUP2 MSTORE PUSH1 0x20 ADD PUSH1 0x0 KECCAK256 SWAP1 POP DUP1 PUSH1 0x5 ADD PUSH1 0x0 SWAP1 SLOAD SWAP1 PUSH2 0x100 EXP SWAP1 DIV PUSH1 0xFF AND ISZERO PUSH2 0x698 JUMPI PUSH1 0x40 MLOAD PUSH32 0x8C379A000000000000000000000000000000000000000000000000000000000 DUP2 MSTORE PUSH1 0x4 ADD PUSH2 0x68F SWAP1 PUSH2 0x17E5 JUMP JUMPDEST PUSH1 0x40 MLOAD DUP1 SWAP2 SUB SWAP1 REVERT JUMPDEST DUP1 PUSH1 0x1 ADD PUSH1 0x0 SWAP1 SLOAD SWAP1 PUSH2 0x100 EXP SWAP1 DIV PUSH20 0xFFFFFFFFFFFFFFFFFFFFFFFFFFFFFFFFFFFFFFFF AND PUSH20 0xFFFFFFFFFFFFFFFFFFFFFFFFFFFFFFFFFFFFFFFF AND CALLER PUSH20 0xFFFFFFFFFFFFFFFFFFFFFFFFFFFFFFFFFFFFFFFF AND EQ PUSH2 0x72A JUMPI PUSH1 0x40 MLOAD PUSH32 0x8C379A000000000000000000000000000000000000000000000000000000000 DUP2 MSTORE PUSH1 0x4 ADD PUSH2 0x721 SWAP1 PUSH2 0x1851 JUMP JUMPDEST PUSH1 0x40 MLOAD DUP1 SWAP2 SUB SWAP1 REVERT JUMPDEST PUSH1 0x1 DUP2 PUSH1 0x5 ADD PUSH1 0x0 PUSH2 0x100 EXP DUP2 SLOAD DUP2 PUSH1 0xFF MUL NOT AND SWAP1 DUP4 ISZERO ISZERO MUL OR SWAP1 SSTORE POP DUP3 DUP2 PUSH1 0x5 ADD PUSH1 0x1 PUSH2 0x100 EXP DUP2 SLOAD DUP2 PUSH1 0xFF MUL NOT AND SWAP1 DUP4 PUSH1 0xFF AND MUL OR SWAP1 SSTORE POP PUSH1 0x0 PUSH1 0x1 PUSH1 0x0 DUP4 PUSH1 0x1 ADD PUSH1 0x0 SWAP1 SLOAD SWAP1 PUSH2 0x100 EXP SWAP1 DIV PUSH20 0xFFFFFFFFFFFFFFFFFFFFFFFFFFFFFFFFFFFFFFFF AND PUSH20 0xFFFFFFFFFFFFFFFFFFFFFFFFFFFFFFFFFFFFFFFF AND PUSH20 0xFFFFFFFFFFFFFFFFFFFFFFFFFFFFFFFFFFFFFFFF AND DUP2 MSTORE PUSH1 0x20 ADD SWAP1 DUP2 MSTORE PUSH1 0x20 ADD PUSH1 0x0 KECCAK256 SWAP1 POP DUP1 PUSH1 0x1 ADD PUSH1 0x0 DUP2 SLOAD DUP1 SWAP3 SWAP2 SWAP1 PUSH2 0x7E0 SWAP1 PUSH2 0x1619 JUMP JUMPDEST SWAP2 SWAP1 POP SSTORE POP DUP4 PUSH1 0xFF AND DUP2 PUSH1 0x2 ADD PUSH1 0x0 DUP3 DUP3 SLOAD PUSH2 0x7FC SWAP2 SWAP1 PUSH2 0x1871 JUMP JUMPDEST SWAP3 POP POP DUP2 SWAP1 SSTORE POP PUSH1 0x0 DUP2 PUSH1 0x1 ADD SLOAD GT ISZERO PUSH2 0x868 JUMPI PUSH1 0x0 DUP2 PUSH1 0x1 ADD SLOAD DUP3 PUSH1 0x2 ADD SLOAD PUSH2 0x826 SWAP2 SWAP1 PUSH2 0x18D4 JUMP JUMPDEST SWAP1 POP PUSH1 0xA DUP3 PUSH1 0x1 ADD SLOAD DUP3 PUSH2 0x83A SWAP2 SWAP1 PUSH2 0x1905 JUMP JUMPDEST PUSH2 0x844 SWAP2 SWAP1 PUSH2 0x18D4 JUMP JUMPDEST DUP3 PUSH1 0x3 ADD DUP2 SWAP1 SSTORE POP PUSH2 0x3E8 DUP3 PUSH1 0x3 ADD SLOAD GT ISZERO PUSH2 0x866 JUMPI PUSH2 0x3E8 DUP3 PUSH1 0x3 ADD DUP2 SWAP1 SSTORE POP JUMPDEST POP JUMPDEST DUP5 PUSH32 0x97B7F9896C6353C0D52BC67CF3F99DEDA6783DC7D67AC59D4E0F86AAB2995556 DUP6 DUP4 PUSH1 0x3 ADD SLOAD PUSH1 0x40 MLOAD PUSH2 0x89E SWAP3 SWAP2 SWAP1 PUSH2 0x1947 JUMP JUMPDEST PUSH1 0x40 MLOAD DUP1 SWAP2 SUB SWAP1 LOG2 DUP2 PUSH1 0x1 ADD PUSH1 0x0 SWAP1 SLOAD SWAP1 PUSH2 0x100 EXP SWAP1 DIV PUSH20 0xFFFFFFFFFFFFFFFFFFFFFFFFFFFFFFFFFFFFFFFF AND PUSH20 0xFFFFFFFFFFFFFFFFFFFFFFFFFFFFFFFFFFFFFFFF AND PUSH32 0xFC577563F1B9A0461E24ABEF1E1FCC0D33D3D881F20B5DF6DDA59DE4AAE2C821 DUP3 PUSH1 0x3 ADD SLOAD PUSH1 0x40 MLOAD PUSH2 0x914 SWAP2 SWAP1 PUSH2 0x1181 JUMP JUMPDEST PUSH1 0x40 MLOAD DUP1 SWAP2 SUB SWAP1 LOG2 POP POP POP POP POP JUMP JUMPDEST DUP4 PUSH1 0x0 DUP1 PUSH1 0x0 DUP4 DUP2 MSTORE PUSH1 0x20 ADD SWAP1 DUP2 MSTORE PUSH1 0x20 ADD PUSH1 0x0 KECCAK256 PUSH1 0x2 ADD SLOAD EQ PUSH2 0x97C JUMPI PUSH1 0x40 MLOAD PUSH32 0x8C379A000000000000000000000000000000000000000000000000000000000 DUP2 MSTORE PUSH1 0x4 ADD PUSH2 0x973 SWAP1 PUSH2 0x19BC JUMP JUMPDEST PUSH1 0x40 MLOAD DUP1 SWAP2 SUB SWAP1 REVERT JUMPDEST PUSH1 0x0 PUSH1 0x40 MLOAD DUP1 PUSH1 0xE0 ADD PUSH1 0x40 MSTORE DUP1 DUP8 DUP2 MSTORE PUSH1 0x20 ADD CALLER PUSH20 0xFFFFFFFFFFFFFFFFFFFFFFFFFFFFFFFFFFFFFFFF AND DUP2 MSTORE PUSH1 0x20 ADD TIMESTAMP DUP2 MSTORE PUSH1 0x20 ADD DUP7 DUP2 MSTORE PUSH1 0x20 ADD DUP6 DUP6 DUP1 DUP1 PUSH1 0x1F ADD PUSH1 0x20 DUP1 SWAP2 DIV MUL PUSH1 0x20 ADD PUSH1 0x40 MLOAD SWAP1 DUP2 ADD PUSH1 0x40 MSTORE DUP1 SWAP4 SWAP3 SWAP2 SWAP1 DUP2 DUP2 MSTORE PUSH1 0x20 ADD DUP4 DUP4 DUP1 DUP3 DUP5 CALLDATACOPY PUSH1 0x0 DUP2 DUP5 ADD MSTORE PUSH1 0x1F NOT PUSH1 0x1F DUP3 ADD AND SWAP1 POP DUP1 DUP4 ADD SWAP3 POP POP POP POP POP POP POP DUP2 MSTORE PUSH1 0x20 ADD PUSH1 0x0 ISZERO ISZERO DUP2 MSTORE PUSH1 0x20 ADD PUSH1 0x0 PUSH1 0xFF AND DUP2 MSTORE POP SWAP1 POP DUP1 PUSH1 0x0 DUP1 DUP9 DUP2 MSTORE PUSH1 0x20 ADD SWAP1 DUP2 MSTORE PUSH1 0x20 ADD PUSH1 0x0 KECCAK256 PUSH1 0x0 DUP3 ADD MLOAD DUP2 PUSH1 0x0 ADD SSTORE PUSH1 0x20 DUP3 ADD MLOAD DUP2 PUSH1 0x1 ADD PUSH1 0x0 PUSH2 0x100 EXP DUP2 SLOAD DUP2 PUSH20 0xFFFFFFFFFFFFFFFFFFFFFFFFFFFFFFFFFFFFFFFF MUL NOT AND SWAP1 DUP4 PUSH20 0xFFFFFFFFFFFFFFFFFFFFFFFFFFFFFFFFFFFFFFFF AND MUL OR SWAP1 SSTORE POP PUSH1 0x40 DUP3 ADD MLOAD DUP2 PUSH1 0x2 ADD SSTORE PUSH1 0x60 DUP3 ADD MLOAD DUP2 PUSH1 0x3 ADD SSTORE PUSH1 0x80 DUP3 ADD MLOAD DUP2 PUSH1 0x4 ADD SWAP1 DUP2 PUSH2 0xAA1 SWAP2 SWAP1 PUSH2 0x1B88 JUMP JUMPDEST POP PUSH1 0xA0 DUP3 ADD MLOAD DUP2 PUSH1 0x5 ADD PUSH1 0x0 PUSH2 0x100 EXP DUP2 SLOAD DUP2 PUSH1 0xFF MUL NOT AND SWAP1 DUP4 ISZERO ISZERO MUL OR SWAP1 SSTORE POP PUSH1 0xC0 DUP3 ADD MLOAD DUP2 PUSH1 0x5 ADD PUSH1 0x1 PUSH2 0x100 EXP DUP2 SLOAD DUP2 PUSH1 0xFF MUL NOT AND SWAP1 DUP4 PUSH1 0xFF AND MUL OR SWAP1 SSTORE POP SWAP1 POP POP PUSH1 0x3 DUP7 SWAP1 DUP1 PUSH1 0x1 DUP2 SLOAD ADD DUP1 DUP3 SSTORE DUP1 SWAP2 POP POP PUSH1 0x1 SWAP1 SUB SWAP1 PUSH1 0x0 MSTORE PUSH1 0x20 PUSH1 0x0 KECCAK256 ADD PUSH1 0x0 SWAP1 SWAP2 SWAP1 SWAP2 SWAP1 SWAP2 POP SSTORE PUSH1 0x2 PUSH1 0x0 CALLER PUSH20 0xFFFFFFFFFFFFFFFFFFFFFFFFFFFFFFFFFFFFFFFF AND PUSH20 0xFFFFFFFFFFFFFFFFFFFFFFFFFFFFFFFFFFFFFFFF AND DUP2 MSTORE PUSH1 0x20 ADD SWAP1 DUP2 MSTORE PUSH1 0x20 ADD PUSH1 0x0 KECCAK256 DUP7 SWAP1 DUP1 PUSH1 0x1 DUP2 SLOAD ADD DUP1 DUP3 SSTORE DUP1 SWAP2 POP POP PUSH1 0x1 SWAP1 SUB SWAP1 PUSH1 0x0 MSTORE PUSH1 0x20 PUSH1 0x0 KECCAK256 ADD PUSH1 0x0 SWAP1 SWAP2 SWAP1 SWAP2 SWAP1 SWAP2 POP SSTORE PUSH1 0x0 PUSH1 0x1 PUSH1 0x0 CALLER PUSH20 0xFFFFFFFFFFFFFFFFFFFFFFFFFFFFFFFFFFFFFFFF AND PUSH20 0xFFFFFFFFFFFFFFFFFFFFFFFFFFFFFFFFFFFFFFFF AND DUP2 MSTORE PUSH1 0x20 ADD SWAP1 DUP2 MSTORE PUSH1 0x20 ADD PUSH1 0x0 KECCAK256 SWAP1 POP DUP1 PUSH1 0x0 ADD PUSH1 0x0 DUP2 SLOAD DUP1 SWAP3 SWAP2 SWAP1 PUSH2 0xBCD SWAP1 PUSH2 0x1619 JUMP JUMPDEST SWAP2 SWAP1 POP SSTORE POP PUSH1 0x1 DUP2 PUSH1 0x4 ADD PUSH1 0x0 PUSH2 0x100 EXP DUP2 SLOAD DUP2 PUSH1 0xFF MUL NOT AND SWAP1 DUP4 ISZERO ISZERO MUL OR SWAP1 SSTORE POP CALLER PUSH20 0xFFFFFFFFFFFFFFFFFFFFFFFFFFFFFFFFFFFFFFFF AND DUP8 PUSH32 0xD6093EB96A14A1EC9F416DA8B1F0E31826FBB7F1E9E1F92D0C997FD28493B747 TIMESTAMP DUP10 DUP10 DUP10 PUSH1 0x40 MLOAD PUSH2 0xC3C SWAP5 SWAP4 SWAP3 SWAP2 SWAP1 PUSH2 0x1C96 JUMP JUMPDEST PUSH1 0x40 MLOAD DUP1 SWAP2 SUB SWAP1 LOG3 POP POP POP POP POP POP POP JUMP JUMPDEST PUSH1 0x0 DUP1 PUSH1 0x0 PUSH1 0x60 PUSH1 0x0 DUP1 PUSH1 0x0 DUP1 PUSH1 0x0 DUP10 DUP2 MSTORE PUSH1 0x20 ADD SWAP1 DUP2 MSTORE PUSH1 0x20 ADD PUSH1 0x0 KECCAK256 PUSH1 0x40 MLOAD DUP1 PUSH1 0xE0 ADD PUSH1 0x40 MSTORE SWAP1 DUP2 PUSH1 0x0 DUP3 ADD SLOAD DUP2 MSTORE PUSH1 0x20 ADD PUSH1 0x1 DUP3 ADD PUSH1 0x0 SWAP1 SLOAD SWAP1 PUSH2 0x100 EXP SWAP1 DIV PUSH20 0xFFFFFFFFFFFFFFFFFFFFFFFFFFFFFFFFFFFFFFFF AND PUSH20 0xFFFFFFFFFFFFFFFFFFFFFFFFFFFFFFFFFFFFFFFF AND PUSH20 0xFFFFFFFFFFFFFFFFFFFFFFFFFFFFFFFFFFFFFFFF AND DUP2 MSTORE PUSH1 0x20 ADD PUSH1 0x2 DUP3 ADD SLOAD DUP2 MSTORE PUSH1 0x20 ADD PUSH1 0x3 DUP3 ADD SLOAD DUP2 MSTORE PUSH1 0x20 ADD PUSH1 0x4 DUP3 ADD DUP1 SLOAD PUSH2 0xCFA SWAP1 PUSH2 0x1690 JUMP JUMPDEST DUP1 PUSH1 0x1F ADD PUSH1 0x20 DUP1 SWAP2 DIV MUL PUSH1 0x20 ADD PUSH1 0x40 MLOAD SWAP1 DUP2 ADD PUSH1 0x40 MSTORE DUP1 SWAP3 SWAP2 SWAP1 DUP2 DUP2 MSTORE PUSH1 0x20 ADD DUP3 DUP1 SLOAD PUSH2 0xD26 SWAP1 PUSH2 0x1690 JUMP JUMPDEST DUP1 ISZERO PUSH2 0xD73 JUMPI DUP1 PUSH1 0x1F LT PUSH2 0xD48 JUMPI PUSH2 0x100 DUP1 DUP4 SLOAD DIV MUL DUP4 MSTORE SWAP2 PUSH1 0x20 ADD SWAP2 PUSH2 0xD73 JUMP JUMPDEST DUP3 ADD SWAP2 SWAP1 PUSH1 0x0 MSTORE PUSH1 0x20 PUSH1 0x0 KECCAK256 SWAP1 JUMPDEST DUP2 SLOAD DUP2 MSTORE SWAP1 PUSH1 0x1 ADD SWAP1 PUSH1 0x20 ADD DUP1 DUP4 GT PUSH2 0xD56 JUMPI DUP3 SWAP1 SUB PUSH1 0x1F AND DUP3 ADD SWAP2 JUMPDEST POP POP POP POP POP DUP2 MSTORE PUSH1 0x20 ADD PUSH1 0x5 DUP3 ADD PUSH1 0x0 SWAP1 SLOAD SWAP1 PUSH2 0x100 EXP SWAP1 DIV PUSH1 0xFF AND ISZERO ISZERO ISZERO ISZERO DUP2 MSTORE PUSH1 0x20 ADD PUSH1 0x5 DUP3 ADD PUSH1 0x1 SWAP1 SLOAD SWAP1 PUSH2 0x100 EXP SWAP1 DIV PUSH1 0xFF AND PUSH1 0xFF AND PUSH1 0xFF AND DUP2 MSTORE POP POP SWAP1 POP DUP1 PUSH1 0x20 ADD MLOAD DUP2 PUSH1 0x40 ADD MLOAD DUP3 PUSH1 0x60 ADD MLOAD DUP4 PUSH1 0x80 ADD MLOAD DUP5 PUSH1 0xA0 ADD MLOAD DUP6 PUSH1 0xC0 ADD MLOAD SWAP7 POP SWAP7 POP SWAP7 POP SWAP7 POP SWAP7 POP SWAP7 POP POP SWAP2 SWAP4 SWAP6 POP SWAP2 SWAP4 SWAP6 JUMP JUMPDEST PUSH1 0x0 DUP1 PUSH1 0x0 DUP1 PUSH1 0x0 PUSH1 0x1 PUSH1 0x0 DUP8 PUSH20 0xFFFFFFFFFFFFFFFFFFFFFFFFFFFFFFFFFFFFFFFF AND PUSH20 0xFFFFFFFFFFFFFFFFFFFFFFFFFFFFFFFFFFFFFFFF AND DUP2 MSTORE PUSH1 0x20 ADD SWAP1 DUP2 MSTORE PUSH1 0x20 ADD PUSH1 0x0 KECCAK256 PUSH1 0x40 MLOAD DUP1 PUSH1 0xA0 ADD PUSH1 0x40 MSTORE SWAP1 DUP2 PUSH1 0x0 DUP3 ADD SLOAD DUP2 MSTORE PUSH1 0x20 ADD PUSH1 0x1 DUP3 ADD SLOAD DUP2 MSTORE PUSH1 0x20 ADD PUSH1 0x2 DUP3 ADD SLOAD DUP2 MSTORE PUSH1 0x20 ADD PUSH1 0x3 DUP3 ADD SLOAD DUP2 MSTORE PUSH1 0x20 ADD PUSH1 0x4 DUP3 ADD PUSH1 0x0 SWAP1 SLOAD SWAP1 PUSH2 0x100 EXP SWAP1 DIV PUSH1 0xFF AND ISZERO ISZERO ISZERO ISZERO DUP2 MSTORE POP POP SWAP1 POP PUSH1 0x0 DUP1 DUP3 PUSH1 0x20 ADD MLOAD GT ISZERO PUSH2 0xEA6 JUMPI DUP2 PUSH1 0x20 ADD MLOAD DUP3 PUSH1 0x40 ADD MLOAD PUSH2 0xEA3 SWAP2 SWAP1 PUSH2 0x18D4 JUMP JUMPDEST SWAP1 POP JUMPDEST DUP2 PUSH1 0x0 ADD MLOAD DUP3 PUSH1 0x20 ADD MLOAD DUP3 DUP5 PUSH1 0x60 ADD MLOAD SWAP6 POP SWAP6 POP SWAP6 POP SWAP6 POP POP POP SWAP2 SWAP4 POP SWAP2 SWAP4 JUMP JUMPDEST PUSH1 0x2 PUSH1 0x20 MSTORE DUP2 PUSH1 0x0 MSTORE PUSH1 0x40 PUSH1 0x0 KECCAK256 DUP2 DUP2 SLOAD DUP2 LT PUSH2 0xEE3 JUMPI PUSH1 0x0 DUP1 REVERT JUMPDEST SWAP1 PUSH1 0x0 MSTORE PUSH1 0x20 PUSH1 0x0 KECCAK256 ADD PUSH1 0x0 SWAP2 POP SWAP2 POP POP SLOAD DUP2 JUMP JUMPDEST PUSH1 0x0 DUP1 REVERT JUMPDEST PUSH1 0x0 DUP1 REVERT JUMPDEST PUSH1 0x0 DUP2 SWAP1 POP SWAP2 SWAP1 POP JUMP JUMPDEST PUSH2 0xF15 DUP2 PUSH2 0xF02 JUMP JUMPDEST DUP2 EQ PUSH2 0xF20 JUMPI PUSH1 0x0 DUP1 REVERT JUMPDEST POP JUMP JUMPDEST PUSH1 0x0 DUP2 CALLDATALOAD SWAP1 POP PUSH2 0xF32 DUP2 PUSH2 0xF0C JUMP JUMPDEST SWAP3 SWAP2 POP POP JUMP JUMPDEST PUSH1 0x0 PUSH1 0x20 DUP3 DUP5 SUB SLT ISZERO PUSH2 0xF4E JUMPI PUSH2 0xF4D PUSH2 0xEF8 JUMP JUMPDEST JUMPDEST PUSH1 0x0 PUSH2 0xF5C DUP5 DUP3 DUP6 ADD PUSH2 0xF23 JUMP JUMPDEST SWAP2 POP POP SWAP3 SWAP2 POP POP JUMP JUMPDEST PUSH1 0x0 DUP2 SWAP1 POP SWAP2 SWAP1 POP JUMP JUMPDEST PUSH2 0xF78 DUP2 PUSH2 0xF65 JUMP JUMPDEST DUP3 MSTORE POP POP JUMP JUMPDEST PUSH1 0x0 PUSH1 0x20 DUP3 ADD SWAP1 POP PUSH2 0xF93 PUSH1 0x0 DUP4 ADD DUP5 PUSH2 0xF6F JUMP JUMPDEST SWAP3 SWAP2 POP POP JUMP JUMPDEST PUSH1 0x0 DUP2 MLOAD SWAP1 POP SWAP2 SWAP1 POP JUMP JUMPDEST PUSH1 0x0 DUP3 DUP3 MSTORE PUSH1 0x20 DUP3 ADD SWAP1 POP SWAP3 SWAP2 POP POP JUMP JUMPDEST PUSH1 0x0 DUP2 SWAP1 POP PUSH1 0x20 DUP3 ADD SWAP1 POP SWAP2 SWAP1 POP JUMP JUMPDEST PUSH2 0xFCE DUP2 PUSH2 0xF65 JUMP JUMPDEST DUP3 MSTORE POP POP JUMP JUMPDEST PUSH1 0x0 PUSH2 0xFE0 DUP4 DUP4 PUSH2 0xFC5 JUMP JUMPDEST PUSH1 0x20 DUP4 ADD SWAP1 POP SWAP3 SWAP2 POP POP JUMP JUMPDEST PUSH1 0x0 PUSH1 0x20 DUP3 ADD SWAP1 POP SWAP2 SWAP1 POP JUMP JUMPDEST PUSH1 0x0 PUSH2 0x1004 DUP3 PUSH2 0xF99 JUMP JUMPDEST PUSH2 0x100E DUP2 DUP6 PUSH2 0xFA4 JUMP JUMPDEST SWAP4 POP PUSH2 0x1019 DUP4 PUSH2 0xFB5 JUMP JUMPDEST DUP1 PUSH1 0x0 JUMPDEST DUP4 DUP2 LT ISZERO PUSH2 0x104A JUMPI DUP2 MLOAD PUSH2 0x1031 DUP9 DUP3 PUSH2 0xFD4 JUMP JUMPDEST SWAP8 POP PUSH2 0x103C DUP4 PUSH2 0xFEC JUMP JUMPDEST SWAP3 POP POP PUSH1 0x1 DUP2 ADD SWAP1 POP PUSH2 0x101D JUMP JUMPDEST POP DUP6 SWAP4 POP POP POP POP SWAP3 SWAP2 POP POP JUMP JUMPDEST PUSH1 0x0 PUSH1 0x20 DUP3 ADD SWAP1 POP DUP2 DUP2 SUB PUSH1 0x0 DUP4 ADD MSTORE PUSH2 0x1071 DUP2 DUP5 PUSH2 0xFF9 JUMP JUMPDEST SWAP1 POP SWAP3 SWAP2 POP POP JUMP JUMPDEST PUSH1 0x0 PUSH20 0xFFFFFFFFFFFFFFFFFFFFFFFFFFFFFFFFFFFFFFFF DUP3 AND SWAP1 POP SWAP2 SWAP1 POP JUMP JUMPDEST PUSH1 0x0 PUSH2 0x10A4 DUP3 PUSH2 0x1079 JUMP JUMPDEST SWAP1 POP SWAP2 SWAP1 POP JUMP JUMPDEST PUSH2 0x10B4 DUP2 PUSH2 0x1099 JUMP JUMPDEST DUP2 EQ PUSH2 0x10BF JUMPI PUSH1 0x0 DUP1 REVERT JUMPDEST POP JUMP JUMPDEST PUSH1 0x0 DUP2 CALLDATALOAD SWAP1 POP PUSH2 0x10D1 DUP2 PUSH2 0x10AB JUMP JUMPDEST SWAP3 SWAP2 POP POP JUMP JUMPDEST PUSH1 0x0 PUSH1 0x20 DUP3 DUP5 SUB SLT ISZERO PUSH2 0x10ED JUMPI PUSH2 0x10EC PUSH2 0xEF8 JUMP JUMPDEST JUMPDEST PUSH1 0x0 PUSH2 0x10FB DUP5 DUP3 DUP6 ADD PUSH2 0x10C2 JUMP JUMPDEST SWAP2 POP POP SWAP3 SWAP2 POP POP JUMP JUMPDEST PUSH2 0x110D DUP2 PUSH2 0xF02 JUMP JUMPDEST DUP3 MSTORE POP POP JUMP JUMPDEST PUSH1 0x0 DUP2 ISZERO ISZERO SWAP1 POP SWAP2 SWAP1 POP JUMP JUMPDEST PUSH2 0x1128 DUP2 PUSH2 0x1113 JUMP JUMPDEST DUP3 MSTORE POP POP JUMP JUMPDEST PUSH1 0x0 PUSH1 0xA0 DUP3 ADD SWAP1 POP PUSH2 0x1143 PUSH1 0x0 DUP4 ADD DUP9 PUSH2 0x1104 JUMP JUMPDEST PUSH2 0x1150 PUSH1 0x20 DUP4 ADD DUP8 PUSH2 0x1104 JUMP JUMPDEST PUSH2 0x115D PUSH1 0x40 DUP4 ADD DUP7 PUSH2 0x1104 JUMP JUMPDEST PUSH2 0x116A PUSH1 0x60 DUP4 ADD DUP6 PUSH2 0x1104 JUMP JUMPDEST PUSH2 0x1177 PUSH1 0x80 DUP4 ADD DUP5 PUSH2 0x111F JUMP JUMPDEST SWAP7 SWAP6 POP POP POP POP POP POP JUMP JUMPDEST PUSH1 0x0 PUSH1 0x20 DUP3 ADD SWAP1 POP PUSH2 0x1196 PUSH1 0x0 DUP4 ADD DUP5 PUSH2 0x1104 JUMP JUMPDEST SWAP3 SWAP2 POP POP JUMP JUMPDEST PUSH2 0x11A5 DUP2 PUSH2 0xF65 JUMP JUMPDEST DUP2 EQ PUSH2 0x11B0 JUMPI PUSH1 0x0 DUP1 REVERT JUMPDEST POP JUMP JUMPDEST PUSH1 0x0 DUP2 CALLDATALOAD SWAP1 POP PUSH2 0x11C2 DUP2 PUSH2 0x119C JUMP JUMPDEST SWAP3 SWAP2 POP POP JUMP JUMPDEST PUSH1 0x0 PUSH1 0x20 DUP3 DUP5 SUB SLT ISZERO PUSH2 0x11DE JUMPI PUSH2 0x11DD PUSH2 0xEF8 JUMP JUMPDEST JUMPDEST PUSH1 0x0 PUSH2 0x11EC DUP5 DUP3 DUP6 ADD PUSH2 0x11B3 JUMP JUMPDEST SWAP2 POP POP SWAP3 SWAP2 POP POP JUMP JUMPDEST PUSH2 0x11FE DUP2 PUSH2 0x1099 JUMP JUMPDEST DUP3 MSTORE POP POP JUMP JUMPDEST PUSH1 0x0 DUP2 MLOAD SWAP1 POP SWAP2 SWAP1 POP JUMP JUMPDEST PUSH1 0x0 DUP3 DUP3 MSTORE PUSH1 0x20 DUP3 ADD SWAP1 POP SWAP3 SWAP2 POP POP JUMP JUMPDEST PUSH1 0x0 JUMPDEST DUP4 DUP2 LT ISZERO PUSH2 0x123E JUMPI DUP1 DUP3 ADD MLOAD DUP2 DUP5 ADD MSTORE PUSH1 0x20 DUP2 ADD SWAP1 POP PUSH2 0x1223 JUMP JUMPDEST PUSH1 0x0 DUP5 DUP5 ADD MSTORE POP POP POP POP JUMP JUMPDEST PUSH1 0x0 PUSH1 0x1F NOT PUSH1 0x1F DUP4 ADD AND SWAP1 POP SWAP2 SWAP1 POP JUMP JUMPDEST PUSH1 0x0 PUSH2 0x1266 DUP3 PUSH2 0x1204 JUMP JUMPDEST PUSH2 0x1270 DUP2 DUP6 PUSH2 0x120F JUMP JUMPDEST SWAP4 POP PUSH2 0x1280 DUP2 DUP6 PUSH1 0x20 DUP7 ADD PUSH2 0x1220 JUMP JUMPDEST PUSH2 0x1289 DUP2 PUSH2 0x124A JUMP JUMPDEST DUP5 ADD SWAP2 POP POP SWAP3 SWAP2 POP POP JUMP JUMPDEST PUSH1 0x0 PUSH1 0xFF DUP3 AND SWAP1 POP SWAP2 SWAP1 POP JUMP JUMPDEST PUSH2 0x12AA DUP2 PUSH2 0x1294 JUMP JUMPDEST DUP3 MSTORE POP POP JUMP JUMPDEST PUSH1 0x0 PUSH1 0xE0 DUP3 ADD SWAP1 POP PUSH2 0x12C5 PUSH1 0x0 DUP4 ADD DUP11 PUSH2 0xF6F JUMP JUMPDEST PUSH2 0x12D2 PUSH1 0x20 DUP4 ADD DUP10 PUSH2 0x11F5 JUMP JUMPDEST PUSH2 0x12DF PUSH1 0x40 DUP4 ADD DUP9 PUSH2 0x1104 JUMP JUMPDEST PUSH2 0x12EC PUSH1 0x60 DUP4 ADD DUP8 PUSH2 0x1104 JUMP JUMPDEST DUP2 DUP2 SUB PUSH1 0x80 DUP4 ADD MSTORE PUSH2 0x12FE DUP2 DUP7 PUSH2 0x125B JUMP JUMPDEST SWAP1 POP PUSH2 0x130D PUSH1 0xA0 DUP4 ADD DUP6 PUSH2 0x111F JUMP JUMPDEST PUSH2 0x131A PUSH1 0xC0 DUP4 ADD DUP5 PUSH2 0x12A1 JUMP JUMPDEST SWAP9 SWAP8 POP POP POP POP POP POP POP POP JUMP JUMPDEST PUSH2 0x132F DUP2 PUSH2 0x1294 JUMP JUMPDEST DUP2 EQ PUSH2 0x133A JUMPI PUSH1 0x0 DUP1 REVERT JUMPDEST POP JUMP JUMPDEST PUSH1 0x0 DUP2 CALLDATALOAD SWAP1 POP PUSH2 0x134C DUP2 PUSH2 0x1326 JUMP JUMPDEST SWAP3 SWAP2 POP POP JUMP JUMPDEST PUSH1 0x0 DUP1 PUSH1 0x40 DUP4 DUP6 SUB SLT ISZERO PUSH2 0x1369 JUMPI PUSH2 0x1368 PUSH2 0xEF8 JUMP JUMPDEST JUMPDEST PUSH1 0x0 PUSH2 0x1377 DUP6 DUP3 DUP7 ADD PUSH2 0x11B3 JUMP JUMPDEST SWAP3 POP POP PUSH1 0x20 PUSH2 0x1388 DUP6 DUP3 DUP7 ADD PUSH2 0x133D JUMP JUMPDEST SWAP2 POP POP SWAP3 POP SWAP3 SWAP1 POP JUMP JUMPDEST PUSH1 0x0 DUP1 REVERT JUMPDEST PUSH1 0x0 DUP1 REVERT JUMPDEST PUSH1 0x0 DUP1 REVERT JUMPDEST PUSH1 0x0 DUP1 DUP4 PUSH1 0x1F DUP5 ADD SLT PUSH2 0x13B7 JUMPI PUSH2 0x13B6 PUSH2 0x1392 JUMP JUMPDEST JUMPDEST DUP3 CALLDATALOAD SWAP1 POP PUSH8 0xFFFFFFFFFFFFFFFF DUP2 GT ISZERO PUSH2 0x13D4 JUMPI PUSH2 0x13D3 PUSH2 0x1397 JUMP JUMPDEST JUMPDEST PUSH1 0x20 DUP4 ADD SWAP2 POP DUP4 PUSH1 0x1 DUP3 MUL DUP4 ADD GT ISZERO PUSH2 0x13F0 JUMPI PUSH2 0x13EF PUSH2 0x139C JUMP JUMPDEST JUMPDEST SWAP3 POP SWAP3 SWAP1 POP JUMP JUMPDEST PUSH1 0x0 DUP1 PUSH1 0x0 DUP1 PUSH1 0x60 DUP6 DUP8 SUB SLT ISZERO PUSH2 0x1411 JUMPI PUSH2 0x1410 PUSH2 0xEF8 JUMP JUMPDEST JUMPDEST PUSH1 0x0 PUSH2 0x141F DUP8 DUP3 DUP9 ADD PUSH2 0x11B3 JUMP JUMPDEST SWAP5 POP POP PUSH1 0x20 PUSH2 0x1430 DUP8 DUP3 DUP9 ADD PUSH2 0xF23 JUMP JUMPDEST SWAP4 POP POP PUSH1 0x40 DUP6 ADD CALLDATALOAD PUSH8 0xFFFFFFFFFFFFFFFF DUP2 GT ISZERO PUSH2 0x1451 JUMPI PUSH2 0x1450 PUSH2 0xEFD JUMP JUMPDEST JUMPDEST PUSH2 0x145D DUP8 DUP3 DUP9 ADD PUSH2 0x13A1 JUMP JUMPDEST SWAP3 POP SWAP3 POP POP SWAP3 SWAP6 SWAP2 SWAP5 POP SWAP3 POP JUMP JUMPDEST PUSH1 0x0 PUSH1 0xC0 DUP3 ADD SWAP1 POP PUSH2 0x1480 PUSH1 0x0 DUP4 ADD DUP10 PUSH2 0x11F5 JUMP JUMPDEST PUSH2 0x148D PUSH1 0x20 DUP4 ADD DUP9 PUSH2 0x1104 JUMP JUMPDEST PUSH2 0x149A PUSH1 0x40 DUP4 ADD DUP8 PUSH2 0x1104 JUMP JUMPDEST DUP2 DUP2 SUB PUSH1 0x60 DUP4 ADD MSTORE PUSH2 0x14AC DUP2 DUP7 PUSH2 0x125B JUMP JUMPDEST SWAP1 POP PUSH2 0x14BB PUSH1 0x80 DUP4 ADD DUP6 PUSH2 0x111F JUMP JUMPDEST PUSH2 0x14C8 PUSH1 0xA0 DUP4 ADD DUP5 PUSH2 0x12A1 JUMP JUMPDEST SWAP8 SWAP7 POP POP POP POP POP POP POP JUMP JUMPDEST PUSH1 0x0 PUSH1 0x80 DUP3 ADD SWAP1 POP PUSH2 0x14E8 PUSH1 0x0 DUP4 ADD DUP8 PUSH2 0x1104 JUMP JUMPDEST PUSH2 0x14F5 PUSH1 0x20 DUP4 ADD DUP7 PUSH2 0x1104 JUMP JUMPDEST PUSH2 0x1502 PUSH1 0x40 DUP4 ADD DUP6 PUSH2 0x1104 JUMP JUMPDEST PUSH2 0x150F PUSH1 0x60 DUP4 ADD DUP5 PUSH2 0x1104 JUMP JUMPDEST SWAP6 SWAP5 POP POP POP POP POP JUMP JUMPDEST PUSH1 0x0 DUP1 PUSH1 0x40 DUP4 DUP6 SUB SLT ISZERO PUSH2 0x152F JUMPI PUSH2 0x152E PUSH2 0xEF8 JUMP JUMPDEST JUMPDEST PUSH1 0x0 PUSH2 0x153D DUP6 DUP3 DUP7 ADD PUSH2 0x10C2 JUMP JUMPDEST SWAP3 POP POP PUSH1 0x20 PUSH2 0x154E DUP6 DUP3 DUP7 ADD PUSH2 0xF23 JUMP JUMPDEST SWAP2 POP POP SWAP3 POP SWAP3 SWAP1 POP JUMP JUMPDEST PUSH32 0x4E487B7100000000000000000000000000000000000000000000000000000000 PUSH1 0x0 MSTORE PUSH1 0x41 PUSH1 0x4 MSTORE PUSH1 0x24 PUSH1 0x0 REVERT JUMPDEST PUSH32 0x4E487B7100000000000000000000000000000000000000000000000000000000 PUSH1 0x0 MSTORE PUSH1 0x11 PUSH1 0x4 MSTORE PUSH1 0x24 PUSH1 0x0 REVERT JUMPDEST PUSH1 0x0 PUSH2 0x15C1 DUP3 PUSH2 0xF02 JUMP JUMPDEST SWAP2 POP PUSH2 0x15CC DUP4 PUSH2 0xF02 JUMP JUMPDEST SWAP3 POP DUP3 DUP3 SUB SWAP1 POP DUP2 DUP2 GT ISZERO PUSH2 0x15E4 JUMPI PUSH2 0x15E3 PUSH2 0x1587 JUMP JUMPDEST JUMPDEST SWAP3 SWAP2 POP POP JUMP JUMPDEST PUSH32 0x4E487B7100000000000000000000000000000000000000000000000000000000 PUSH1 0x0 MSTORE PUSH1 0x32 PUSH1 0x4 MSTORE PUSH1 0x24 PUSH1 0x0 REVERT JUMPDEST PUSH1 0x0 PUSH2 0x1624 DUP3 PUSH2 0xF02 JUMP JUMPDEST SWAP2 POP PUSH32 0xFFFFFFFFFFFFFFFFFFFFFFFFFFFFFFFFFFFFFFFFFFFFFFFFFFFFFFFFFFFFFFFF DUP3 SUB PUSH2 0x1656 JUMPI PUSH2 0x1655 PUSH2 0x1587 JUMP JUMPDEST JUMPDEST PUSH1 0x1 DUP3 ADD SWAP1 POP SWAP2 SWAP1 POP JUMP JUMPDEST PUSH32 0x4E487B7100000000000000000000000000000000000000000000000000000000 PUSH1 0x0 MSTORE PUSH1 0x22 PUSH1 0x4 MSTORE PUSH1 0x24 PUSH1 0x0 REVERT JUMPDEST PUSH1 0x0 PUSH1 0x2 DUP3 DIV SWAP1 POP PUSH1 0x1 DUP3 AND DUP1 PUSH2 0x16A8 JUMPI PUSH1 0x7F DUP3 AND SWAP2 POP JUMPDEST PUSH1 0x20 DUP3 LT DUP2 SUB PUSH2 0x16BB JUMPI PUSH2 0x16BA PUSH2 0x1661 JUMP JUMPDEST JUMPDEST POP SWAP2 SWAP1 POP JUMP JUMPDEST PUSH32 0x50726564696374696F6E20646F6573206E6F7420657869737400000000000000 PUSH1 0x0 DUP3 ADD MSTORE POP JUMP JUMPDEST PUSH1 0x0 PUSH2 0x16F7 PUSH1 0x19 DUP4 PUSH2 0x120F JUMP JUMPDEST SWAP2 POP PUSH2 0x1702 DUP3 PUSH2 0x16C1 JUMP JUMPDEST PUSH1 0x20 DUP3 ADD SWAP1 POP SWAP2 SWAP1 POP JUMP JUMPDEST PUSH1 0x0 PUSH1 0x20 DUP3 ADD SWAP1 POP DUP2 DUP2 SUB PUSH1 0x0 DUP4 ADD MSTORE PUSH2 0x1726 DUP2 PUSH2 0x16EA JUMP JUMPDEST SWAP1 POP SWAP2 SWAP1 POP JUMP JUMPDEST PUSH32 0x4163637572616379206D75737420626520302D31303000000000000000000000 PUSH1 0x0 DUP3 ADD MSTORE POP JUMP JUMPDEST PUSH1 0x0 PUSH2 0x1763 PUSH1 0x16 DUP4 PUSH2 0x120F JUMP JUMPDEST SWAP2 POP PUSH2 0x176E DUP3 PUSH2 0x172D JUMP JUMPDEST PUSH1 0x20 DUP3 ADD SWAP1 POP SWAP2 SWAP1 POP JUMP JUMPDEST PUSH1 0x0 PUSH1 0x20 DUP3 ADD SWAP1 POP DUP2 DUP2 SUB PUSH1 0x0 DUP4 ADD MSTORE PUSH2 0x1792 DUP2 PUSH2 0x1756 JUMP JUMPDEST SWAP1 POP SWAP2 SWAP1 POP JUMP JUMPDEST PUSH32 0x416C726561647920766572696669656400000000000000000000000000000000 PUSH1 0x0 DUP3 ADD MSTORE POP JUMP JUMPDEST PUSH1 0x0 PUSH2 0x17CF PUSH1 0x10 DUP4 PUSH2 0x120F JUMP JUMPDEST SWAP2 POP PUSH2 0x17DA DUP3 PUSH2 0x1799 JUMP JUMPDEST PUSH1 0x20 DUP3 ADD SWAP1 POP SWAP2 SWAP1 POP JUMP JUMPDEST PUSH1 0x0 PUSH1 0x20 DUP3 ADD SWAP1 POP DUP2 DUP2 SUB PUSH1 0x0 DUP4 ADD MSTORE PUSH2 0x17FE DUP2 PUSH2 0x17C2 JUMP JUMPDEST SWAP1 POP SWAP2 SWAP1 POP JUMP JUMPDEST PUSH32 0x4F6E6C7920707265646963746F722063616E2076657269667900000000000000 PUSH1 0x0 DUP3 ADD MSTORE POP JUMP JUMPDEST PUSH1 0x0 PUSH2 0x183B PUSH1 0x19 DUP4 PUSH2 0x120F JUMP JUMPDEST SWAP2 POP PUSH2 0x1846 DUP3 PUSH2 0x1805 JUMP JUMPDEST PUSH1 0x20 DUP3 ADD SWAP1 POP SWAP2 SWAP1 POP JUMP JUMPDEST PUSH1 0x0 PUSH1 0x20 DUP3 ADD SWAP1 POP DUP2 DUP2 SUB PUSH1 0x0 DUP4 ADD MSTORE PUSH2 0x186A DUP2 PUSH2 0x182E JUMP JUMPDEST SWAP1 POP SWAP2 SWAP1 POP JUMP JUMPDEST PUSH1 0x0 PUSH2 0x187C DUP3 PUSH2 0xF02 JUMP JUMPDEST SWAP2 POP PUSH2 0x1887 DUP4 PUSH2 0xF02 JUMP JUMPDEST SWAP3 POP DUP3 DUP3 ADD SWAP1 POP DUP1 DUP3 GT ISZERO PUSH2 0x189F JUMPI PUSH2 0x189E PUSH2 0x1587 JUMP JUMPDEST JUMPDEST SWAP3 SWAP2 POP POP JUMP JUMPDEST PUSH32 0x4E487B7100000000000000000000000000000000000000000000000000000000 PUSH1 0x0 MSTORE PUSH1 0x12 PUSH1 0x4 MSTORE PUSH1 0x24 PUSH1 0x0 REVERT JUMPDEST PUSH1 0x0 PUSH2 0x18DF DUP3 PUSH2 0xF02 JUMP JUMPDEST SWAP2 POP PUSH2 0x18EA DUP4 PUSH2 0xF02 JUMP JUMPDEST SWAP3 POP DUP3 PUSH2 0x18FA JUMPI PUSH2 0x18F9 PUSH2 0x18A5 JUMP JUMPDEST JUMPDEST DUP3 DUP3 DIV SWAP1 POP SWAP3 SWAP2 POP POP JUMP JUMPDEST PUSH1 0x0 PUSH2 0x1910 DUP3 PUSH2 0xF02 JUMP JUMPDEST SWAP2 POP PUSH2 0x191B DUP4 PUSH2 0xF02 JUMP JUMPDEST SWAP3 POP DUP3 DUP3 MUL PUSH2 0x1929 DUP2 PUSH2 0xF02 JUMP JUMPDEST SWAP2 POP DUP3 DUP3 DIV DUP5 EQ DUP4 ISZERO OR PUSH2 0x1940 JUMPI PUSH2 0x193F PUSH2 0x1587 JUMP JUMPDEST JUMPDEST POP SWAP3 SWAP2 POP POP JUMP JUMPDEST PUSH1 0x0 PUSH1 0x40 DUP3 ADD SWAP1 POP PUSH2 0x195C PUSH1 0x0 DUP4 ADD DUP6 PUSH2 0x12A1 JUMP JUMPDEST PUSH2 0x1969 PUSH1 0x20 DUP4 ADD DUP5 PUSH2 0x1104 JUMP JUMPDEST SWAP4 SWAP3 POP POP POP JUMP JUMPDEST PUSH32 0x50726564696374696F6E20616C72656164792065786973747300000000000000 PUSH1 0x0 DUP3 ADD MSTORE POP JUMP JUMPDEST PUSH1 0x0 PUSH2 0x19A6 PUSH1 0x19 DUP4 PUSH2 0x120F JUMP JUMPDEST SWAP2 POP PUSH2 0x19B1 DUP3 PUSH2 0x1970 JUMP JUMPDEST PUSH1 0x20 DUP3 ADD SWAP1 POP SWAP2 SWAP1 POP JUMP JUMPDEST PUSH1 0x0 PUSH1 0x20 DUP3 ADD SWAP1 POP DUP2 DUP2 SUB PUSH1 0x0 DUP4 ADD MSTORE PUSH2 0x19D5 DUP2 PUSH2 0x1999 JUMP JUMPDEST SWAP1 POP SWAP2 SWAP1 POP JUMP JUMPDEST PUSH1 0x0 DUP2 SWAP1 POP DUP2 PUSH1 0x0 MSTORE PUSH1 0x20 PUSH1 0x0 KECCAK256 SWAP1 POP SWAP2 SWAP1 POP JUMP JUMPDEST PUSH1 0x0 PUSH1 0x20 PUSH1 0x1F DUP4 ADD DIV SWAP1 POP SWAP2 SWAP1 POP JUMP JUMPDEST PUSH1 0x0 DUP3 DUP3 SHL SWAP1 POP SWAP3 SWAP2 POP POP JUMP JUMPDEST PUSH1 0x0 PUSH1 0x8 DUP4 MUL PUSH2 0x1A3E PUSH32 0xFFFFFFFFFFFFFFFFFFFFFFFFFFFFFFFFFFFFFFFFFFFFFFFFFFFFFFFFFFFFFFFF DUP3 PUSH2 0x1A01 JUMP JUMPDEST PUSH2 0x1A48 DUP7 DUP4 PUSH2 0x1A01 JUMP JUMPDEST SWAP6 POP DUP1 NOT DUP5 AND SWAP4 POP DUP1 DUP7 AND DUP5 OR SWAP3 POP POP POP SWAP4 SWAP3 POP POP POP JUMP JUMPDEST PUSH1 0x0 DUP2 SWAP1 POP SWAP2 SWAP1 POP JUMP JUMPDEST PUSH1 0x0 PUSH2 0x1A85 PUSH2 0x1A80 PUSH2 0x1A7B DUP5 PUSH2 0xF02 JUMP JUMPDEST PUSH2 0x1A60 JUMP JUMPDEST PUSH2 0xF02 JUMP JUMPDEST SWAP1 POP SWAP2 SWAP1 POP JUMP JUMPDEST PUSH1 0x0 DUP2 SWAP1 POP SWAP2 SWAP1 POP JUMP JUMPDEST PUSH2 0x1A9F DUP4 PUSH2 0x1A6A JUMP JUMPDEST PUSH2 0x1AB3 PUSH2 0x1AAB DUP3 PUSH2 0x1A8C JUMP JUMPDEST DUP5 DUP5 SLOAD PUSH2 0x1A0E JUMP JUMPDEST DUP3 SSTORE POP POP POP POP JUMP JUMPDEST PUSH1 0x0 SWAP1 JUMP JUMPDEST PUSH2 0x1AC8 PUSH2 0x1ABB JUMP JUMPDEST PUSH2 0x1AD3 DUP2 DUP5 DUP5 PUSH2 0x1A96 JUMP JUMPDEST POP POP POP JUMP JUMPDEST JUMPDEST DUP2 DUP2 LT ISZERO PUSH2 0x1AF7 JUMPI PUSH2 0x1AEC PUSH1 0x0 DUP3 PUSH2 0x1AC0 JUMP JUMPDEST PUSH1 0x1 DUP2 ADD SWAP1 POP PUSH2 0x1AD9 JUMP JUMPDEST POP POP JUMP JUMPDEST PUSH1 0x1F DUP3 GT ISZERO PUSH2 0x1B3C JUMPI PUSH2 0x1B0D DUP2 PUSH2 0x19DC JUMP JUMPDEST PUSH2 0x1B16 DUP5 PUSH2 0x19F1 JUMP JUMPDEST DUP2 ADD PUSH1 0x20 DUP6 LT ISZERO PUSH2 0x1B25 JUMPI DUP2 SWAP1 POP JUMPDEST PUSH2 0x1B39 PUSH2 0x1B31 DUP6 PUSH2 0x19F1 JUMP JUMPDEST DUP4 ADD DUP3 PUSH2 0x1AD8 JUMP JUMPDEST POP POP JUMPDEST POP POP POP JUMP JUMPDEST PUSH1 0x0 DUP3 DUP3 SHR SWAP1 POP SWAP3 SWAP2 POP POP JUMP JUMPDEST PUSH1 0x0 PUSH2 0x1B5F PUSH1 0x0 NOT DUP5 PUSH1 0x8 MUL PUSH2 0x1B41 JUMP JUMPDEST NOT DUP1 DUP4 AND SWAP2 POP POP SWAP3 SWAP2 POP POP JUMP JUMPDEST PUSH1 0x0 PUSH2 0x1B78 DUP4 DUP4 PUSH2 0x1B4E JUMP JUMPDEST SWAP2 POP DUP3 PUSH1 0x2 MUL DUP3 OR SWAP1 POP SWAP3 SWAP2 POP POP JUMP JUMPDEST PUSH2 0x1B91 DUP3 PUSH2 0x1204 JUMP JUMPDEST PUSH8 0xFFFFFFFFFFFFFFFF DUP2 GT ISZERO PUSH2 0x1BAA JUMPI PUSH2 0x1BA9 PUSH2 0x1558 JUMP JUMPDEST JUMPDEST PUSH2 0x1BB4 DUP3 SLOAD PUSH2 0x1690 JUMP JUMPDEST PUSH2 0x1BBF DUP3 DUP3 DUP6 PUSH2 0x1AFB JUMP JUMPDEST PUSH1 0x0 PUSH1 0x20 SWAP1 POP PUSH1 0x1F DUP4 GT PUSH1 0x1 DUP2 EQ PUSH2 0x1BF2 JUMPI PUSH1 0x0 DUP5 ISZERO PUSH2 0x1BE0 JUMPI DUP3 DUP8 ADD MLOAD SWAP1 POP JUMPDEST PUSH2 0x1BEA DUP6 DUP3 PUSH2 0x1B6C JUMP JUMPDEST DUP7 SSTORE POP PUSH2 0x1C52 JUMP JUMPDEST PUSH1 0x1F NOT DUP5 AND PUSH2 0x1C00 DUP7 PUSH2 0x19DC JUMP JUMPDEST PUSH1 0x0 JUMPDEST DUP3 DUP2 LT ISZERO PUSH2 0x1C28 JUMPI DUP5 DUP10 ADD MLOAD DUP3 SSTORE PUSH1 0x1 DUP3 ADD SWAP2 POP PUSH1 0x20 DUP6 ADD SWAP5 POP PUSH1 0x20 DUP2 ADD SWAP1 POP PUSH2 0x1C03 JUMP JUMPDEST DUP7 DUP4 LT ISZERO PUSH2 0x1C45 JUMPI DUP5 DUP10 ADD MLOAD PUSH2 0x1C41 PUSH1 0x1F DUP10 AND DUP3 PUSH2 0x1B4E JUMP JUMPDEST DUP4 SSTORE POP JUMPDEST PUSH1 0x1 PUSH1 0x2 DUP9 MUL ADD DUP9 SSTORE POP POP POP JUMPDEST POP POP POP POP POP POP JUMP JUMPDEST DUP3 DUP2 DUP4 CALLDATACOPY PUSH1 0x0 DUP4 DUP4 ADD MSTORE POP POP POP JUMP JUMPDEST PUSH1 0x0 PUSH2 0x1C75 DUP4 DUP6 PUSH2 0x120F JUMP JUMPDEST SWAP4 POP PUSH2 0x1C82 DUP4 DUP6 DUP5 PUSH2 0x1C5A JUMP JUMPDEST PUSH2 0x1C8B DUP4 PUSH2 0x124A JUMP JUMPDEST DUP5 ADD SWAP1 POP SWAP4 SWAP3 POP POP POP JUMP JUMPDEST PUSH1 0x0 PUSH1 0x60 DUP3 ADD SWAP1 POP PUSH2 0x1CAB PUSH1 0x0 DUP4 ADD DUP8 PUSH2 0x1104 JUMP JUMPDEST PUSH2 0x1CB8 PUSH1 0x20 DUP4 ADD DUP7 PUSH2 0x1104 JUMP JUMPDEST DUP2 DUP2 SUB PUSH1 0x40 DUP4 ADD MSTORE PUSH2 0x1CCB DUP2 DUP5 DUP7 PUSH2 0x1C69 JUMP JUMPDEST SWAP1 POP SWAP6 SWAP5 POP POP POP POP POP JUMP INVALID LOG2 PUSH5 0x6970667358 0x22 SLT KECCAK256 PUSH12 0xAF4291C9AB2D24F4563361F3 0xE1 SELFDESTRUCT 0x2F MLOAD 0xE4 PUSH18 0xFA1C431F96F4454324928768D164736F6C63 NUMBER STOP ADDMOD EQ STOP CALLER "},"methodIdentifiers":{"allPredictions(uint256)":"1847df91","getLatestPredictions(uint256)":"20a0846a","getPrediction(bytes32)":"dc6423ab","getPredictorPredictions(address)":"5536492e","getPredictorStats(address)":"e5ecf209","getTotalPredictions()":"5c580061","predictions(bytes32)":"5d9eaeaf","predictorPredictions(address,uint256)":"e9a811d7","predictorStats(address)":"4d4ad46c","recordPrediction(bytes32,uint256,string)":"be952428","verifyPrediction(bytes32,uint8)":"bbc4a01c"}}}}}